:100000000C9481000C94B5000C94B5000C94680419
:100010000C9464040C9460040C94B5000C94B5002A
:100020000C94B5000C94B5000C94B5000C94B5007C
:100030000C94B5000C943C050C94B5000C9426046B
:100040000C94B5000C94B5000C94B5000C94B5005C
:100050000C94B5000C94B5000C94B5000C94B5004C
:100060000C94B5000C94B5000C94B5000C94BA0433
:100070000C94B3040C94C1040C94B500076342368D
:10008000B79BD8A71A39685618AEBAAB558C1D3C29
:10009000B7CC5763BD6DEDFD753EF6177231BF00ED
:1000A0000000803F08000000BE922449123EABAA27
:1000B000AA2ABECDCCCC4C3E00000080BEABAAAA82
:1000C000AA3E00000000BF000000803F00000000CA
:1000D00000084178D3BB4387D1133D190E3CC3BD03
:1000E0004282AD2B3E68EC8276BED98FE1A93E4CB0
:1000F00080EFFFBE01C4FF7F3F0000000000C70586
:10010000B40911241FBECFEFCDBFDFE3DEBF809166
:10011000400080934000811105C098ED21E094BF1C
:10012000209341008CBB18E3A0E0B8E3E2E4F4E3E1
:1001300002C005900D92A630B107D9F729E3A6E0D9
:10014000B8E301C01D92A73AB207E1F710E0C0E89A
:10015000D0E004C02197FE010E94030ACF37D107E7
:10016000C9F70E94AD060C94CF0D0C9400009FB708
:10017000F89488E08093840A80918E0A81FFFCCFF6
:1001800080918D0AE091A20AF091A30A20917C3817
:1001900030917D3840917E3850917F389FBF80FFED
:1001A00007C0E730F10520F42F5F3F4F4F4F5F4FFF
:1001B000BF0176956795CF01860F911DE62FE695D5
:1001C000E695762F72957F70E71BFF0B67FD3196E2
:1001D000E80FF91FA0E3B3E00E94E4096E0F7F1F50
:1001E000811D911D0895CF92DF92EF92FF92CF93E0
:1001F000DF930E94B700EB0184EFC82EDD24D39477
:10020000E12CF12C0E94B7006C1B7D0B683E734003
:10021000A0F0C114D104E104F10439F4DF91CF91CD
:10022000FF90EF90DF90CF90089581E0C81AD10839
:10023000E108F108C851DC4FE5CFC114D104E10455
:10024000F10401F7EBCFE0916C38F0916D38309705
:1002500009F44DC0A285B3858185928D91FF04C0BC
:100260009C91892329F408959C91892309F03FC02A
:10027000A785B0899C918189809589238C938289F7
:1002800093890197F1F764897589A285B3855185B2
:1002900038E020E0CB010197F1F7822F90E09595AF
:1002A0008795282F4C91452309F02068315091F70C
:1002B000828D81FD209580916B3890E001968F733F
:1002C000992730916A38381799F0A0916B38B0E0CF
:1002D000A65DB74C2C9380936B38868997890197DC
:1002E000F1F7A785B0898C919189892B8C9308951A
:1002F000828D8160828FF1CFAF92BF92CF92DF92D9
:10030000EF92FF920F931F93CF93DF936C017B01CA
:100310008B01040F151FEB015E01AE18BF08C0175B
:10032000D10759F06991D601ED91FC910190F081CE
:10033000E02DC6010995892B79F7C501DF91CF9191
:100340001F910F91FF90EF90DF90CF90BF90AF90F3
:100350000895FC0157854089252F30E0842F90E0D7
:10036000821B930B541710F0CF96089501970895B0
:10037000FC0195858685981761F0A685AE0FBF2F85
:10038000B11D51968C9196859F5F9F73968790E0E3
:1003900008958FEF9FEF0895FC0195858685981746
:1003A00031F08685E80FF11D818990E008958FEF87
:1003B0009FEF0895FC0195852685892F90E0805C4C
:1003C0009F4F821B91098F7399270895DC010FB607
:1003D00007FE04C0809111018823B9F01896ED91B1
:1003E000FC911997848185FF10C01F969C911F97DF
:1003F00050968C91981304C085818F7D85830895D4
:10040000E0E8F8E3E8940C94CF0408950F931F9369
:10041000CF93DF93EC018C8581608C879F858889E1
:1004200098130BC0E885F985848185FF06C08C850B
:1004300081FD0EC080E4848313C0062F1F851F5FDB
:100440001F738889811316C0CE010E94E601F9CF7F
:1004500085818F77806490E49483E885F98585832E
:10046000E885F985628381E090E0DF91CF911F916B
:100470000F910895EF85EC0FFD2FF11DEF5AFF4FFF
:1004800000831F878C85E885F98581FF09C08581F8
:100490008F77806690E49483E885F9858583E3CF40
:1004A00085818062FBCFCF93DF93EC018C8588231D
:1004B00061F0E885F985858185FD03C0848186FD2D
:1004C00004C0CE010E94E601F4CFDF91CF910895E0
:1004D00020916C3830916D382817390771F490915C
:1004E0006A3880916B38981741F0E0916A38F0E0F3
:1004F000E65DF74C808190E008958FEF9FEF0895BF
:100500000895EF92FF920F931F93CF93DF93DC0137
:100510005896ED90FC905997E114F10479F481E03C
:1005200090E012968D939C93139790E080E0DF917A
:10053000CF911F910F91FF90EF9008951D96ED912F
:10054000FC911E971C968C911C97982F90950FB735
:100550005A962C915A97122F127021FD6095F8949B
:100560002081112319F1282B2083E7012197F1F72E
:1005700028E0462F50E0308160FF1AC0382B3083CE
:10058000E7012197F1F7BA0175956795215089F731
:10059000112381F08081892380830FBF58968D912C
:1005A0009C910197F1F781E090E0C1CF2923DCCF46
:1005B0003923E5CF9081892BEFCF20916C38309192
:1005C0006D382817390741F480916B3890916A385B
:1005D000891B8F7390E0089590E080E0089520914A
:1005E0006C3830916D3828173907A1F490916A382A
:1005F00080916B38981771F0E0916A38F0E0E65D11
:10060000F74C808190916A389F5F9F7390936A380E
:1006100090E008958FEF9FEF089590E080E00895B7
:100620008091833990E0009709F1019711F188EBEF
:100630009BE98093713990937239809361399093DB
:100640006239809351399093523980934139909314
:100650004239809331399093323980932139909384
:1006600022398093113990931239089588EB93EAD7
:10067000E0CF8CE29CEADDCFCF92DF92EF92FF9247
:10068000CF93DF93EC016A017B016A817B8190E06B
:1006900080E00E94260BA70196010E94B90B6B0116
:1006A0007C016C817D818E819F810E94260B9B0144
:1006B000AC01C701B6010E94850A0E94F70A6C8747
:1006C0007D878E879F87DF91CF91FF90EF90DF909E
:1006D000CF9008958231F0F490E0FC01E85FF3459B
:1006E00020812F3FB9F0FC01EA50F445E08130E26F
:1006F000E39FF0011124FC5F60FF0DC021838C514A
:100700009445DC018C91E80FF11D808961FF05C0E3
:100710008860808B08952283F2CF877FFACFCF93B2
:10072000DF938231A8F590E0EC01C85FD3452881C2
:100730002F3F71F1AC014A505445DA01EC91B0E21F
:10074000EB9FF0011124FC5F611125C026833081ED
:100750002323A1F49C012C513445D9012C913097CD
:10076000E1F02830D0F47096E20FF11D3FB7F89415
:100770002081611115C0277F20833FBF805494459D
:10078000FC018081882321F0803161F08038E1F024
:10079000DF91CF9108952583DACFF0E0E0E0E6CF56
:1007A0002860EACF8881DA019C91913059F4853034
:1007B00010F0880F82959091010A8095892380938B
:1007C000010AE6CF880FF7CF1092A006E1CF0E9472
:1007D000F30061E08DE00E948F030E94F30060E06F
:1007E0008DE00C948F03CF92DF92EF92FF926B011A
:1007F0007C0120E030E04EEF52E40E94B40B18166A
:100800000CF120E030E04AE852E4C701B6010E9452
:10081000180A20E030E040E451E40E94850A9B0180
:10082000AC0160E070E080E090E40E94260C20E0E3
:1008300030E04CED53E40E94B90BFF90EF90DF9055
:10084000CF90089560E070E0CB01F7CFEF93FF9376
:10085000E6E7F8E38F938FB78F939F937F9370E0D2
:1008600080819181805D9C4F80839183885E9340DD
:1008700018F0808391837F5F9281970F928380E04D
:100880009381981F93839481981F94839581981FD7
:10089000958396819F5F968397819F4F97839085DD
:1008A0009F4F908791859F4F918781E080938D0A1C
:1008B0007F919F918F918FBF8F91FF91EF911895AD
:1008C0000F9304E00C946C040F9302E00C946C04FE
:1008D0000F9300E00C946C040F920FB60F921F92CE
:1008E0001124FF921F932F933F934F935F936F9326
:1008F0007F938F939F93AF93BF93CF93DF93EF93A8
:10090000FF93A0E0B8E3A00FB11DCD91DC91000FE3
:100910000D5FA02FB0E0FC90109761F01F2D169591
:1009200018F041F02296FBCFE991F9913097B9F395
:100930000995F5CFA02FB0E0FC92FF91EF91DF91E8
:10094000CF91BF91AF919F918F917F916F915F9167
:100950004F913F912F911F91FF901F900F900FBECD
:100960000F900F911895EF93FF93F898E0E8F8E354
:100970000C94C704EF93FF93F898E0E8F8E30C9425
:10098000F604EF93FF93E0E8F8E30C9423052F932C
:100990002FB72F938F939F93AF93BF936894CF9369
:1009A000DF9320E0C085D8E09089DF01A90FB21F56
:1009B000AF5ABF4F8C9120E42C838A839F5F9F7333
:1009C0008D812785291302C08F7D8D83908BDF91C8
:1009D000CF9116F00C940502BF91AF919F918F912A
:1009E0002F912FBF2F91FF91EF9118952F932FB734
:1009F0002F933F938F939F93CF93DF93C085D8E03E
:100A0000898198818674880F3485382B82FD0DC0CA
:100A1000C58581E08C0F8F732685281791F0CE0F46
:100A2000DF2F20E0D21F998B85873487DF91CF910C
:100A30009F918F913F912F912FBF2F91FF91EF9118
:100A400018953064F2CF8F938FB78F939F93CF9386
:100A5000DF93C085D8E09D8188818C8187FDFCCFA4
:100A60009F7B90689D83DF91CF919F918F918FBFE6
:100A70008F91FF91EF9118951F920F920FB60F92E1
:100A800011240F931F932F933F934F935F936F9373
:100A90007F938F939F93AF93BF93EF930091793997
:100AA00010917A3920917B3930917C39809173395A
:100AB0009091743901978023912340917D39509111
:100AC0007E3960917F3970918039400F511F621FCC
:100AD000731F4093793950937A3960937B397093BF
:100AE0007C392091713930917239820F931FDC016A
:100AF000EC910091693910916A3920916B393091EC
:100B00006C398091633990916439019780239123E6
:100B100040916D3950916E3960916F397091703993
:100B2000400F511F621F731F4093693950936A39F8
:100B300060936B3970936C392091613930916239CF
:100B4000820F931FDC018C91082E000C990B8E0FE5
:100B5000911DE7FD9A9597FD01969595879581588A
:100B60008093A10681E08093460AEF91BF91AF91F7
:100B70009F918F917F916F915F914F913F912F91B5
:100B80001F910F910F900FBE0F901F9018950F930C
:100B90001F93CF93DF93E0E8F8E31282138288EE8D
:100BA00093E0A0E0B0E084839583A683B78326ED2D
:100BB0003BEA2083318300E018E00087118712862A
:100BC0001386CCE8D9E31A821B828C839D83AE8383
:100BD000BF838EE19CEA888399831A8A1B8A1C8AC8
:100BE0001D8A1E8A1F8A188E198EE6EAF9E3608133
:100BF0006E7F6D7F60836695617081E0682785E018
:100C00000E948F0361E085E00E946A0380E18C8787
:100C100084E294E08D879E878FEF8887898788E0BC
:100C200090E08A879B87E1E8F9E38CE0808383E0AA
:100C300081838CE291E0A0E0B0E087839087A18778
:100C4000B287809100148283E1E7F9E32CE23CEA69
:100C5000208331830283138380E197E2A0E0B0E038
:100C600084839583A683B7831086118612861386A4
:100C70001486158616861786E1E6F9E3208331830C
:100C80000283138384839583A683B783108611869A
:100C9000128613861486158616861786E1E5F9E313
:100CA000208331830283138384839583A683B78350
:100CB0001086118612861386148615861686178668
:100CC000E1E4F9E3208331830283138384839583F2
:100CD000A683B7831086118612861386148615861E
:100CE00016861786E1E3F9E32083318302831383B9
:100CF00084839583A683B783108611861286138614
:100D00001486158616861786E1E2F9E3208331837F
:100D10000283138384839583A683B7831086118609
:100D2000128613861486158616861786E1E1F9E386
:100D3000208331830283138384839583A683B783BF
:100D400010861186128613861486158616861786D7
:100D5000DF91CF911F910F910895CF93DF9300D032
:100D600000D0CDB7DEB788ED90E084BF90936100EE
:100D7000E0E0F6E083E582838DE0858380E2838393
:100D800081E08083109202028093030A9EEF909389
:100D9000260A9093270A9BE09093000AE0E8FAE085
:100DA0002DEF31E026A737A7118290E89283848740
:100DB00081E18083789461E083E00E946A0360E0CF
:100DC00083E00E948F0361E085E00E946A0385E072
:100DD00092E08093A4399093A53981EF90E08093BD
:100DE0009E3990939F3983E092E08093A03990934D
:100DF000A1398AE791E08093A2399093A339209199
:100E00009439223198F530E0F901EC51F4458081B4
:100E10008F3F61F12A503445D901EC91F0E0DF01B8
:100E2000AA0FBB1FA050B84C2D913C912115310544
:100E3000E9F0482F50E0440F551F240F351F43E2BF
:100E400051E0D9014D935C939FB7F8949F0145E021
:100E5000220F331F4A95E1F7E0E1E80FE20FF0E0DF
:100E6000FC5F8081887F816080839FBF8091A439EF
:100E70009091A5390197F1F78091A2399091A3390A
:100E8000892B49F1E0916C38F0916D38B9E3EC3879
:100E9000FB0709F1309739F0A785B0899C918189CA
:100EA000809589238C938091A6398E7F8093A63973
:100EB00010926B3810926A388CE899E380936C3802
:100EC00090936D38E0919B39F0919C39808190919D
:100ED0009D39892B80838091A1008D7F8093A10013
:100EE000809102068F7C80658093020660E08EE030
:100EF0000E946A0360E08FE00E946A038091A00074
:100F000083608093A0008091A10081608093A10004
:100F100081E48093A0061092A10680918C3880FF16
:100F200012C080E898E30E945302E0918838F09163
:100F300089381682158280EC848380918E38809364
:100F40008D3810928C381FB7F894E0918838F09162
:100F50008938168283E0878380E09AE080879187D2
:100F6000148680E8858380EC868390918B38E091AD
:100F70008A38E98380910102992309F4A3C0816032
:100F8000809301022981290F3327331F220F331F3A
:100F9000220F331F2854344529833A8361E0D90155
:100FA0008C910E946A0362E0E981FA8181810E944A
:100FB0006A031FBF8091400A81608093400A80913C
:100FC000400A82608093400A88EE93E080934C0A46
:100FD00090934D0A8091410A8093410A81E0809369
:100FE000450A789462E0809181390E946A031092E8
:100FF000843910928539109286391092873961E0D0
:101000008DE00E946A030E94100342E150E06CE20E
:1010100074EB8CE899E30E947C0142E050E06FE3BE
:1010200074EB8CE899E30E947C0112E080E898E37D
:101030000E94DA011816190654F480E898E30E9419
:10104000B80187FF41C080936E381092713880914B
:101050008139282F30E04091843950918539609151
:10106000863970918739823108F016C1F901E85F3D
:10107000F34580818F3F09F40FC12A503445D901CF
:10108000EC91B0E2EB9FF0011124FC5F9085892385
:1010900009F002C1452B462B472B41F62FB7F89498
:1010A0008091783890917938A0917A38B0917B38D6
:1010B0002FBF8093843990938539A0938639B0935C
:1010C0008739B4CF8E7F5CCF90916E38992309F425
:1010D000BECFE091713821E02E0F20937138F0E0FF
:1010E000E259F74C8183223008F4B1CF1092713865
:1010F000892F807F809372389F7090937338F0901F
:101100006F38F092743890917038909375388039B8
:1011100009F0BDC08091000669EF72E8882369F08C
:1011200081E0809306068093080680910B0680FF7D
:10113000FCCF6091100670911106072E000C880BF1
:10114000990B0E94280B20E030EC4FE754E40E94FA
:10115000850A20E030E040E451E40E94B90B4B01E5
:101160005C016F2D70E090E080E00E94260B0E94F1
:10117000F303AB01BC0181E799E30E943C036F2DAF
:1011800070E090E080E00E94280B6B017C01A501DB
:1011900094010E94180A0E94F303AB01BC0181E68E
:1011A00099E30E943C0320E030E040E05FE3C501AA
:1011B000B4010E94B90B69837A838B839C839B0162
:1011C000AC01C701B6010E94180A0E94F303AB01EB
:1011D000BC0181E599E30E943C0320E030E040E857
:1011E0005EE3C501B4010E94B90B2B013C01AC01C7
:1011F0009B01C701B6010E94180A0E94F303AB01CC
:10120000BC0181E499E30E943C03A3019201C70160
:10121000B6010E94190A0E94F303AB01BC0181E3ED
:1012200099E30E943C0329813A814B815C81C7018B
:10123000B6010E94190A0E94F303AB01BC0181E2CE
:1012400099E30E943C03A7019601C501B4010E94E5
:10125000190A0E94F303AB01BC0181E199E30E94EA
:101260003C0380910006882369F01093060681E014
:101270008093080680910B0680FFFCCF80911006BA
:101280009091110661E083E00E948F03E0CE8038E8
:1012900009F0DDCE60E0F7CF452B462B472B09F454
:1012A000C5CE2FB7F8948091783890917938A09175
:1012B0007A38B0917B382FBF40918439509185396D
:1012C0006091863970918739841B950BA60BB70BFB
:1012D000409188395091893960918A3970918B3960
:1012E00084179507A607B70748F41092843910921F
:1012F0008539109286391092873998CE809183393A
:1013000090E001966091823970E00E94D00980934C
:101310008339A0E0B4E1E0E0F0E10FB62281237070
:10132000E9F7F8948C938DE984BF83E080830FBE46
:10133000109284391092853910928639109287392B
:101340000E94100380918339811103C00E94E7033A
:101350006DCE813019F40E94E703F8CF823009F096
:1013600065CE0E94E703F7CF8EE19CEA80938C392B
:1013700090938D3980916C3890916D388C58994349
:1013800071F4E0919B39F0919C39908180919D3965
:1013900080958923808310926C3810926D3808955F
:1013A00097FB072E16F4009407D077FD09D00E9412
:1013B000EF0907FC05D03EF4909581959F4F089565
:1013C000709561957F4F08950E94090AA59F900D21
:1013D000B49F900DA49F800D911D11240895AA1B08
:1013E000BB1B51E107C0AA1FBB1FA617B70710F010
:1013F000A61BB70B881F991F5A95A9F78095909542
:10140000BC01CD010895EE0FFF1F0590F491E02D72
:101410000994A29FB001B39FC001A39F700D811DCD
:101420001124911DB29F700D811D1124911D0895ED
:101430005058BB27AA270E94300A0C947A0B0E94AE
:101440006C0B38F00E94730B20F039F49F3F19F4B5
:1014500026F40C94690B0EF4E095E7FB0C94630BF7
:10146000E92F0E948B0B58F3BA17620773078407A2
:10147000950720F079F4A6F50C94AD0B0EF4E095E9
:101480000B2EBA2FA02D0B01B90190010C01CA013E
:10149000A0011124FF27591B99F0593F50F4503EE9
:1014A00068F11A16F040A22F232F342F4427585FDB
:1014B000F3CF469537952795A795F0405395C9F7F3
:1014C0007EF41F16BA0B620B730B840BBAF09150AB
:1014D000A1F0FF0FBB1F661F771F881FC2F70EC04A
:1014E000BA0F621F731F841F48F48795779567951D
:1014F000B795F7959E3F08F0B0CF9395880F08F009
:101500009927EE0F9795879508950E94990A0C9454
:101510007A0B0E94730B58F00E946C0B40F029F478
:101520005F3F29F00C94630B51110C94AE0B0C949B
:10153000690B0E948B0B68F39923B1F3552391F348
:10154000951B550BBB27AA2762177307840738F032
:101550009F5F5F4F220F331F441FAA1FA9F335D08F
:101560000E2E3AF0E0E832D091505040E695001C43
:10157000CAF72BD0FE2F29D0660F771F881FBB1FFD
:10158000261737074807AB07B0E809F0BB0B802DDB
:10159000BF01FF2793585F4F3AF09E3F510578F007
:1015A0000C94630B0C94AE0B5F3FE4F3983ED4F3C2
:1015B000869577956795B795F7959F5FC9F7880FDB
:1015C000911D9695879597F90895E1E0660F771F2D
:1015D000881FBB1F621773078407BA0720F0621BBE
:1015E000730B840BBA0BEE1F88F7E09508950E94E9
:1015F000930B88F09F5798F0B92F9927B751B0F007
:10160000E1F0660F771F881F991F1AF0BA95C9F786
:1016100014C0B13091F00E94AD0BB1E008950C946C
:10162000AD0B672F782F8827B85F39F0B93FCCF31F
:10163000869577956795B395D9F73EF49095809503
:10164000709561957F4F8F4F9F4F0895E89409C023
:1016500097FB3EF490958095709561957F4F8F4FE5
:101660009F4F9923A9F0F92F96E9BB279395F695FB
:10167000879577956795B795F111F8CFFAF4BB0F79
:1016800011F460FF1BC06F5F7F4F8F4F9F4F16C0DD
:10169000882311F096E911C0772321F09EE8872F67
:1016A000762F05C0662371F096E8862F70E060E023
:1016B0002AF09A95660F771F881FDAF7880F96959C
:1016C000879597F9089597F99F6780E870E060E043
:1016D00008959FEF80EC089500240A9416161706CB
:1016E00018060906089500240A9412161306140613
:1016F00005060895092E0394000C11F4882352F076
:10170000BB0F40F4BF2B11F460FF04C06F5F7F4F2D
:101710008F4F9F4F089557FD9058440F551F59F014
:101720005F3F71F04795880F97FB991F61F09F3FCE
:1017300079F087950895121613061406551FF2CFF7
:101740004695F1DF08C0161617061806991FF1CF47
:1017500086957105610508940895E894BB2766276E
:101760007727CB0197F908950E94B00C08F48FEF0A
:1017700008950E94CC0B0C947A0B0E946C0B38F0ED
:101780000E94730B20F0952311F00C94630B0C94C2
:10179000690B11240C94AE0B0E948B0B70F3959F78
:1017A000C1F3950F50E0551F629FF001729FBB2758
:1017B000F00DB11D639FAA27F00DB11DAA1F649FF4
:1017C0006627B00DA11D661F829F2227B00DA11DA7
:1017D000621F739FB00DA11D621F839FA00D611D2D
:1017E000221F749F3327A00D611D231F849F600D4E
:1017F000211D822F762F6A2F11249F5750409AF077
:10180000F1F088234AF0EE0FFF1FBB1F661F771F02
:10181000881F91505040A9F79E3F510580F00C94CD
:10182000630B0C94AE0B5F3FE4F3983ED4F38695C4
:1018300077956795B795F795E7959F5FC1F7FE2B6D
:10184000880F911D9695879597F90895FA01EE0FE7
:10185000FF1F309621053105A1F16115710561F475
:101860008038BFE39B0749F168949038810561F0A7
:101870008038BFEF9B0741F099234AF5FF3FE10510
:101880003105210519F1E8940894E795D901AA23B7
:1018900029F4AB2FBE2FF85FD0F310C0FF5F70F4B8
:1018A000A695E0F7F73950F019F0FF3A38F49F7732
:1018B0009F930DD00F9007FC9058089546F00C941C
:1018C000690B60E070E080E89FE308954FE79F7741
:1018D0005F934F933F932F930E94450D2F913F911C
:1018E0004F915F910E94B90B0C947E0C29F416F075
:1018F0000C94630B0C94AD0B0C94690B0E94930B2E
:10190000A8F39638A0F707F80F92E8942BE33AEA89
:1019100048EB5FE70E94CF0B0F920F920F924DB7EB
:101920005EB70F920E948D0DECE7F0E00E94D40CA0
:101930004F915F91EF91FF91E595EE1FFF1F49F0E9
:10194000FE57E0684427EE0F441FFA95E1F74195F2
:10195000550B0E94070D0F9007FE0C94FB0C089589
:10196000990F0008550FAA0BE0E8FEEF16161706B0
:10197000E807F907C0F012161306E407F50798F018
:10198000621B730B840B950B39F40A2661F0232B31
:10199000242B252B21F408950A2609F4A140A695AD
:1019A0008FEF811D811D0895DF93CF931F930F93B8
:1019B000FF92EF92DF927B018C01689406C0DA2ED1
:1019C000EF010E94CC0BFE01E894A5912591359181
:1019D00045915591A6F3EF010E94300AFE0197014F
:1019E000A801DA9469F7DF90EF90FF900F911F91B3
:1019F000CF91DF9108959B01AC0160E070E080E839
:101A00009FE30C94850A0C94630B0C94C10D0E9407
:101A1000930BD8F39923C9F3940F511DA3F391505D
:101A2000504094F059F0882332F0660F771F881FDA
:101A300091505040C1F79E3F51052CF7880F911DE2
:101A40009695879597F908955F3FACF0983E9CF086
:101A5000BB27869577956795B79508F4B160939500
:101A6000C1F7BB0F58F711F460FFE8CF6F5F7F4FEE
:101A70008F4F9F4FE3CF0C94AE0B16F00C94C10D1B
:101A80000C94690B68940C94630B0E94930BA8F35D
:101A90009923C1F3AEF3DF93CF931F930F93FF927C
:101AA000C92FDD2788232AF02197660F771F881F0B
:101AB000DAF720E030E040E85FEB9FE3883920F080
:101AC000803E38F021968F770E94190AE4EAF0E010
:101AD00004C00E94190AE1EDF0E00E94D40C8B01D1
:101AE000BE01EC01FB2E6F5771097595771F880BAE
:101AF000990B0E94280B28E132E741E35FE30E9443
:101B0000CC0BAF2D9801AE01FF900F911F91CF919B
:101B1000DF910E94300A0C947A0BFA01DC01AA0FC3
:101B2000BB1F9B01AC01BF5728F422273327442752
:101B3000507820C0B75190F4AB2F002446953795CC
:101B40002795011CA395D2F3002071F0220F331FBB
:101B5000441FB395DAF30ED00C94180A6130710566
:101B6000A0E88A07B94630F49B01AC0166277727C5
:101B700088279078309621F02083318342835383E5
:101B800008959F3F31F0915020F4879577956795A0
:101B9000B795880F911D9695879597F9089510E050
:101BA000C0E8D0E004C0FE010E94030A2196C138BB
:081BB000D107C9F7F894FFCF3B
:101BB800002F59797F7F7F7F7F7874757A7F7F7F49
:101BC8007F7F7F7C7A7A7C7F7F7F7F7F7F7E7C7C34
:101BD8007D7F7F7F7F7F7F7F7D7D7D7E7F7F7F7F16
:101BE8007F7F7E7D7D7E7F7F7F7F7F7F7E7E7E7E07
:101BF8007F7F7F7F7F7F7F7E7E7E7F7F7F7F7F7FF0
:101C08007F7E7E7E7F7F7F7F7F7F7F7E7E7E7F7FE2
:101C18007F7F7F7F7F7F7E7E7F7F7F7F7F7F7F7FCE
:101C28007E7E7F7F7F7F7F7F7F7F7F7E7F7F7F7FBF
:101C38007F7F7F7F7F7F7F7F7F7F7F7F7F7F7F7FAC
:101C48007F7F7F7F7F7F7F7F7F7F7F7F7F7F7F7F9C
:101C58007F7F7F7F7F7F7F7F7F7F7F7F7F7F7F7F8C
:101C68007F7F7F7F7F7F7F7F7F7F7F7F7F7F7F7F7C
:101F38007F7F7F7F7F7F7F7F7F7F7F7F7F7F7F7EAA
:101F48007E7F7F7F7F7F7F7F7F7E7E7F7F7F7F7F9C
:101F58007F7F7F7E7E7F7F7F7F7F7F7F7F7E7E7E8E
:101F68007F7F7F7F7F7F7F7E7E7E7F7F7F7F7F7F7C
:101F78007F7E7E7E7E7F7F7F7F7F7F7E7D7D7E7F73
:101F88007F7F7F7F7F7E7D7D7D7F7F7F7F7F7F7F60
:101F98007D7C7C7E7F7F7F7F7F7F7C7A7A7C7F7F62
:101FA8007F7F7F7F7A7574787F7F7F7F7F79592FD6
:101FB80000D1A7878181818181888C8B86818181ED
:101FC80081818184868684818181818181828484E2
:101FD80083818181818181818383838281818181E0
:101FE80081818283838281818181818182828282CF
:101FF80081818181818181828282818181818181C6
:1020080081828282818181818181818182828181B3
:1020180081818181818182828181818181818181A6
:102028008182818181818181818181828181818196
:102038008181818181818181818181818181818188
:102048008181818181818181818181818181818178
:102058008181818181818181818181818181818168
:102068008181818181818181818181818181818158
:102338008181818181828181818181818181818283
:102348008281818181818181818282818181818172
:10235800818181828282818181818181818282825F
:102368008181818181818182828281818181818152
:10237800818282828281818181818182838382813B
:10238800818181818182838383818181818181812E
:10239800838484828181818181818486868481810C
:1023A80081818181868B8C88818181818187A7D178
:1023B80000000101020202030304040405050506E6
:1023C8000607070708080909090A0A0B0B0B0C0C72
:1023D8000C0D0D0E0E0E0F0F101010111111121200
:1023E800131313141415151516161617171818188D
:1023F80019191A1A1A1B1B1B1C1C1D1D1D1E1E1E1B
:102408001F1F2020202121212222232323242424AA
:10241800252526262627272728282929292A2A2A3A
:102428002B2B2C2C2C2D2D2D2E2E2E2F2F303030CB
:10243800313131323232333333343435353536365F
:10244800363737373838383939393A3A3A3B3B3CF6
:102458003C3C3D3D3D3E3E3E3F3F3F40404041418C
:102468004142424243434344444445454546464627
:10247800474747484848484949494A4A4A4B4B4BC5
:102488004C4C4C4D4D4D4E4E4E4E4F4F4F50505064
:102498005151515152525253535354545454555507
:1024A8005556565656575757585858585959595AAD
:1024B8005A5A5A5B5B5B5B5C5C5C5D5D5D5D5E5E56
:1024C8005E5E5F5F5F5F6060606061616161626204
:1024D80062626363636364646464656565656666B4
:1024E8006666666767676768686868696969696969
:1024F8006A6A6A6A6A6B6B6B6B6C6C6C6C6C6D6D20
:102508006D6D6D6E6E6E6E6E6F6F6F6F6F6F7070DC
:10251800707070717171717171727272727272739E
:102528007373737373747474747474757575757563
:10253800757576767676767676777777777777772E
:1025480078787878787878787979797979797979FB
:102558007A7A7A7A7A7A7A7A7A7B7B7B7B7B7B7BCC
:102568007B7B7B7B7C7C7C7C7C7C7C7C7C7C7C7CA7
:102578007D7D7D7D7D7D7D7D7D7D7D7D7D7D7E7E81
:102588007E7E7E7E7E7E7E7E7E7E7E7E7E7E7E7E63
:102598007E7E7E7E7F7F7F7F7F7F7F7F7F7F7F7F47
:1025A8007F7F7F7F7F7F7F7F7F7F7F7F7F7F7F7F33
:1025B8007F7F7F7F7F7F7F7F7F7F7F7F7F7F7F7F23
:1025C8007F7F7F7F7F7F7F7F7F7F7F7F7F7E7E7E16
:1025D8007E7E7E7E7E7E7E7E7E7E7E7E7E7E7E7E13
:1025E8007E7E7E7D7D7D7D7D7D7D7D7D7D7D7D7D10
:1025F8007D7C7C7C7C7C7C7C7C7C7C7C7C7B7B7B15
:102608007B7B7B7B7B7B7B7B7A7A7A7A7A7A7A7A1A
:102618007A79797979797979797878787878787828
:10262800787777777777777776767676767676753A
:102638007575757575757474747474747373737350
:10264800737372727272727271717171717170706A
:102658007070706F6F6F6F6F6F6E6E6E6E6E6D6D88
:102668006D6D6D6C6C6C6C6C6B6B6B6B6A6A6A6AAB
:102678006A696969696968686868676767676666D3
:1026880066666665656565646464646363636362FE
:1026980062626261616161606060605F5F5F5F5E2E
:1026A8005E5E5E5D5D5D5D5C5C5C5B5B5B5B5A5A60
:1026B8005A5A595959585858585757575656565696
:1026C80055555554545454535353525252515151D1
:1026D800515050504F4F4F4E4E4E4E4D4D4D4C4C0D
:1026E8004C4B4B4B4A4A4A4949494848484847474E
:1026F800474646464545454444444343434242428F
:102708004141414040403F3F3F3E3E3E3D3D3D3CD4
:102718003C3C3B3B3A3A3A3939393838383737371D
:102728003636363535353434333333323232313167
:10273800313030302F2F2E2E2E2D2D2D2C2C2C2BB2
:102748002B2A2A2A29292928282727272626262501
:102758002524242423232322222121212020201F51
:102768001F1E1E1E1D1D1D1C1C1B1B1B1A1A1A19A1
:1027780019181818171716161615151514141313F3
:102788001312121111111010100F0F0E0E0E0D0D45
:102798000C0C0C0B0B0B0A0A090909080807070798
:1027A80006060505050404040303020202010100EC
:1027B8000000FFFFFEFEFEFDFDFCFCFCFBFBFBFA40
:1027C800FAF9F9F9F8F8F7F7F7F6F6F5F5F5F4F494
:1027D800F4F3F3F2F2F2F1F1F0F0F0EFEFEFEEEEE6
:1027E800EDEDEDECECEBEBEBEAEAEAE9E9E8E8E839
:1027F800E7E7E6E6E6E5E5E5E4E4E3E3E3E2E2E28B
:10280800E1E1E0E0E0DFDFDFDEDEDDDDDDDCDCDCDA
:10281800DBDBDADADAD9D9D9D8D8D7D7D7D6D6D62A
:10282800D5D5D4D4D4D3D3D3D2D2D2D1D1D0D0D079
:10283800CFCFCFCECECECDCDCDCCCCCBCBCBCACAC5
:10284800CAC9C9C9C8C8C8C7C7C7C6C6C6C5C5C40E
:10285800C4C4C3C3C3C2C2C2C1C1C1C0C0C0BFBF58
:10286800BFBEBEBEBDBDBDBCBCBCBBBBBBBABABA9D
:10287800B9B9B9B8B8B8B8B7B7B7B6B6B6B5B5B5DF
:10288800B4B4B4B3B3B3B2B2B2B2B1B1B1B0B0B020
:10289800AFAFAFAFAEAEAEADADADACACACACABAB5D
:1028A800ABAAAAAAAAA9A9A9A8A8A8A8A7A7A7A697
:1028B800A6A6A6A5A5A5A5A4A4A4A3A3A3A3A2A2CE
:1028C800A2A2A1A1A1A1A0A0A0A09F9F9F9F9E9E00
:1028D8009E9E9D9D9D9D9C9C9C9C9B9B9B9B9A9A30
:1028E8009A9A9A999999999898989897979797975B
:1028F8009696969696959595959494949494939384
:1029080093939392929292929191919191919090A6
:102918009090908F8F8F8F8F8F8E8E8E8E8E8E8DC4
:102928008D8D8D8D8D8C8C8C8C8C8C8B8B8B8B8BDF
:102938008B8B8A8A8A8A8A8A8A89898989898989F4
:102948008888888888888888878787878787878707
:102958008686868686868686868585858585858516
:10296800858585858484848484848484848484841B
:102978008383838383838383838383838383828221
:10298800828282828282828282828282828282821F
:10299800828282828181818181818181818181811B
:1029A800818181818181818181818181818181810F
:1029B80081818181818181818181818181818181FF
:1029C80081818181818181818181818181828282EC
:1029D80082828282828282828282828282828282CF
:1029E80082828283838383838383838383838383B2
:1029F800838484848484848484848484848585858D
:102A08008585858585858585868686868686868666
:102A18008687878787878787878888888888888838
:102A280088898989898989898A8A8A8A8A8A8A8B06
:102A38008B8B8B8B8B8B8C8C8C8C8C8C8D8D8D8DD0
:102A48008D8D8E8E8E8E8E8E8F8F8F8F8F8F909096
:102A58009090909191919191919292929292939358
:102A68009393939494949494959595959696969615
:102A780096979797979798989898999999999A9ACD
:102A88009A9A9A9B9B9B9B9C9C9C9C9D9D9D9D9E82
:102A98009E9E9E9F9F9F9FA0A0A0A0A1A1A1A1A232
:102AA800A2A2A2A3A3A3A3A4A4A4A5A5A5A5A6A6E0
:102AB800A6A6A7A7A7A8A8A8A8A9A9A9AAAAAAAA8A
:102AC800ABABABACACACACADADADAEAEAEAFAFAF2F
:102AD800AFB0B0B0B1B1B1B2B2B2B2B3B3B3B4B4D3
:102AE800B4B5B5B5B6B6B6B7B7B7B8B8B8B8B9B972
:102AF800B9BABABABBBBBBBCBCBCBDBDBDBEBEBE11
:102B0800BFBFBFC0C0C0C1C1C1C2C2C2C3C3C3C4AA
:102B1800C4C4C5C5C6C6C6C7C7C7C8C8C8C9C9C941
:102B2800CACACACBCBCBCCCCCDCDCDCECECECFCFD7
:102B3800CFD0D0D0D1D1D2D2D2D3D3D3D4D4D4D56C
:102B4800D5D6D6D6D7D7D7D8D8D9D9D9DADADADBFD
:102B5800DBDCDCDCDDDDDDDEDEDFDFDFE0E0E0E18D
:102B6800E1E2E2E2E3E3E3E4E4E5E5E5E6E6E6E71D
:102B7800E7E8E8E8E9E9EAEAEAEBEBEBECECEDEDAB
:102B8800EDEEEEEFEFEFF0F0F0F1F1F2F2F2F3F339
:102B9800F4F4F4F5F5F5F6F6F7F7F7F8F8F9F9F9C6
:102BA800FAFAFBFBFBFCFCFCFDFDFEFEFEFFFF0052
:102BB800070608090E0F1000101080000000001012
:102BC80010100000000000001000000000000602C5
:102BD8007C01A9015302DA01B801CC0104050607FA
:102BE80005040302010000010203010203000000C2
:102BF80000000101010101010202020200000000BF
:102C08001020408020100804020101020408020478
:102C180008010000000081027C010D038002DD0232
:102C2800EF02680200000001010101020202020332
:102C38000303030404040405050505060606060740
:102C480007070708080808090909090A0A0A0A0BF0
:102C58000B0B0B0C0C0C0C0D0D0D0D0E0E0E0E0FA0
:102C68000F0F0F1010101011111111121212121350
:102C78001313131414141415151515161616161700
:102C880017171718181818191919191A1A1A1A1BB0
:102C98001B1B1B1C1C1C1C1D1D1D1D1E1E1E1E1F60
:102CA8001F1F1F2020202020212121212222222213
:102CB80023232323242424242525252526262626C4
:102CC8002727272728282828292929292A2A2A2A74
:102CD8002B2B2B2B2C2C2C2C2D2D2D2D2E2E2E2E24
:102CE8002F2F2F2F303030303131313132323232D4
:102CF8003333333334343434353535353636363684
:102D08003737373738383838393939393A3A3A3A33
:102D18003B3B3B3B3C3C3C3C3D3D3D3D3E3E3E3EE3
:102D28003F3F3F3F40404040404141414142424295
:102D38004243434343444444444545454546464647
:102D4800464747474748484848494949494A4A4AF7
:102D58004A4B4B4B4B4C4C4C4C4D4D4D4D4E4E4EA7
:102D68004E4F4F4F4F505050505151515152525257
:102D78005253535353545454545555555556565607
:102D8800565757575758585858595959595A5A5AB7
:102D98005A5B5B5B5B5C5C5C5C5D5D5D5D5E5E5E67
:102DA8005E5F5F5F5F5F606060606161616162621A
:102DB80062626363636364646464656565656666CB
:102DC80066666767676768686868696969696A6A7B
:102DD8006A6A6B6B6B6B6C6C6C6C6D6D6D6D6E6E2B
:102DE8006E6E6F6F6F6F70707070717171717272DB
:102DF800727273737373747474747575757576768B
:102E080076767777777778787878797979797A7A3A
:102E18007A7A7B7B7B7B7C7C7C7C7D7D7D7D7E7EEA
:102E28007E7E7F7F7F7F7F7E7E7E7E7D7D7D7D7CBB
:102E38007C7C7C7B7B7B7B7A7A7A7A7979797978E6
:102E48007878787777777776767676757575757416
:102E58007474747373737372727272717171717046
:102E68007070706F6F6F6F6E6E6E6E6D6D6D6D6C76
:102E78006C6C6C6B6B6B6B6A6A6A6A6969696968A6
:102E880068686867676767666666666565656564D6
:102E98006464646363636362626262616161616006
:102EA8006060605F5F5F5F5F5E5E5E5E5D5D5D5D33
:102EB8005C5C5C5C5B5B5B5B5A5A5A5A5959595962
:102EC8005858585857575757565656565555555592
:102ED80054545454535353535252525251515151C2
:102EE800505050504F4F4F4F4E4E4E4E4D4D4D4DF2
:102EF8004C4C4C4C4B4B4B4B4A4A4A4A4949494922
:102F08004848484847474747464646464545454551
:102F18004444444443434343424242424141414181
:102F280040404040403F3F3F3F3E3E3E3E3D3D3DAE
:102F38003D3C3C3C3C3B3B3B3B3A3A3A3A393939DD
:102F4800393838383837373737363636363535350D
:102F5800353434343433333333323232323131313D
:102F680031303030302F2F2F2F2E2E2E2E2D2D2D6D
:102F78002D2C2C2C2C2B2B2B2B2A2A2A2A2929299D
:102F880029282828282727272726262626252525CD
:102F980025242424242323232322222222212121FD
:102FA8002120202020201F1F1F1F1E1E1E1E1D1D2A
:102FB8001D1D1C1C1C1C1B1B1B1B1A1A1A1A191959
:102FC8001919181818181717171716161616151589
:102FD80015151414141413131313121212121111B9
:102FE8001111101010100F0F0F0F0E0E0E0E0D0DE9
:102FF8000D0D0C0C0C0C0B0B0B0B0A0A0A0A090919
:103008000909080808080707070706060606050548
:103018000505040404040303030302020202010178
:1030280001010000000000FFFFFFFFFEFEFEFEFDA5
:10303800FDFDFDFCFCFCFCFBFBFBFBFAFAFAFAF9D4
:10304800F9F9F9F8F8F8F8F7F7F7F7F6F6F6F6F504
:10305800F5F5F5F4F4F4F4F3F3F3F3F2F2F2F2F134
:10306800F1F1F1F0F0F0F0EFEFEFEFEEEEEEEEED64
:10307800EDEDEDECECECECEBEBEBEBEAEAEAEAE994
:10308800E9E9E9E8E8E8E8E7E7E7E7E6E6E6E6E5C4
:10309800E5E5E5E4E4E4E4E3E3E3E3E2E2E2E2E1F4
:1030A800E1E1E1E0E0E0E0E0DFDFDFDFDEDEDEDE21
:1030B800DDDDDDDDDCDCDCDCDBDBDBDBDADADADA50
:1030C800D9D9D9D9D8D8D8D8D7D7D7D7D6D6D6D680
:1030D800D5D5D5D5D4D4D4D4D3D3D3D3D2D2D2D2B0
:1030E800D1D1D1D1D0D0D0D0CFCFCFCFCECECECEE0
:1030F800CDCDCDCDCCCCCCCCCBCBCBCBCACACACA10
:10310800C9C9C9C9C8C8C8C8C7C7C7C7C6C6C6C63F
:10311800C5C5C5C5C4C4C4C4C3C3C3C3C2C2C2C26F
:10312800C1C1C1C1C0C0C0C0C0BFBFBFBFBEBEBE9D
:10313800BEBDBDBDBDBCBCBCBCBBBBBBBBBABABACB
:10314800BAB9B9B9B9B8B8B8B8B7B7B7B7B6B6B6FB
:10315800B6B5B5B5B5B4B4B4B4B3B3B3B3B2B2B22B
:10316800B2B1B1B1B1B0B0B0B0AFAFAFAFAEAEAE5B
:10317800AEADADADADACACACACABABABABAAAAAA8B
:10318800AAA9A9A9A9A8A8A8A8A7A7A7A7A6A6A6BB
:10319800A6A5A5A5A5A4A4A4A4A3A3A3A3A2A2A2EB
:1031A800A2A1A1A1A1A1A0A0A0A09F9F9F9F9E9E18
:1031B8009E9E9D9D9D9D9C9C9C9C9B9B9B9B9A9A47
:1031C8009A9A999999999898989897979797969677
:1031D80096969595959594949494939393939292A7
:1031E800929291919191909090908F8F8F8F8E8ED7
:1031F8008E8E8D8D8D8D8C8C8C8C8B8B8B8B8A8A07
:103208008A8A898989898888888887878787868636
:103218008686858585858484848483838383828266
:103228008282818181818182828282838383838475
:10323800848484858585858686868687878787882A
:10324800888888898989898A8A8A8A8B8B8B8B8CDA
:103258008C8C8C8D8D8D8D8E8E8E8E8F8F8F8F908A
:10326800909090919191919292929293939393943A
:1032780094949495959595969696969797979798EA
:10328800989898999999999A9A9A9A9B9B9B9B9C9A
:103298009C9C9C9D9D9D9D9E9E9E9E9F9F9F9FA04A
:1032A800A0A0A0A1A1A1A1A1A2A2A2A2A3A3A3A3FD
:1032B800A4A4A4A4A5A5A5A5A6A6A6A6A7A7A7A7AE
:1032C800A8A8A8A8A9A9A9A9AAAAAAAAABABABAB5E
:1032D800ACACACACADADADADAEAEAEAEAFAFAFAF0E
:1032E800B0B0B0B0B1B1B1B1B2B2B2B2B3B3B3B3BE
:1032F800B4B4B4B4B5B5B5B5B6B6B6B6B7B7B7B76E
:10330800B8B8B8B8B9B9B9B9BABABABABBBBBBBB1D
:10331800BCBCBCBCBDBDBDBDBEBEBEBEBFBFBFBFCD
:10332800C0C0C0C0C0C1C1C1C1C2C2C2C2C3C3C380
:10333800C3C4C4C4C4C5C5C5C5C6C6C6C6C7C7C731
:10334800C7C8C8C8C8C9C9C9C9CACACACACBCBCBE1
:10335800CBCCCCCCCCCDCDCDCDCECECECECFCFCF91
:10336800CFD0D0D0D0D1D1D1D1D2D2D2D2D3D3D341
:10337800D3D4D4D4D4D5D5D5D5D6D6D6D6D7D7D7F1
:10338800D7D8D8D8D8D9D9D9D9DADADADADBDBDBA1
:10339800DBDCDCDCDCDDDDDDDDDEDEDEDEDFDFDF51
:1033A800DFE0E0E0E0E0E1E1E1E1E2E2E2E2E3E304
:1033B800E3E3E4E4E4E4E5E5E5E5E6E6E6E6E7E7B5
:1033C800E7E7E8E8E8E8E9E9E9E9EAEAEAEAEBEB65
:1033D800EBEBECECECECEDEDEDEDEEEEEEEEEFEF15
:1033E800EFEFF0F0F0F0F1F1F1F1F2F2F2F2F3F3C5
:1033F800F3F3F4F4F4F4F5F5F5F5F6F6F6F6F7F775
:10340800F7F7F8F8F8F8F9F9F9F9FAFAFAFAFBFB24
:10341800FBFBFCFCFCFCFDFDFDFDFEFEFEFEFFFFD4
:10342800FFFF00004D434F20302E322E30205374C2
:0A343800617274656421000D0A0042
:063442001A380E380638AE
:00000001FF
