:100000000C9440000C9474000C9474000C94BE0387
:100010000C94BA030C94B6030C9474000C94740002
:100020000C9474000C9474000C9474000C94740080
:100030000C9474000C9492040C9474000C947C0343
:100040000C9474000C9474000C9474000C94740060
:100050000C9474000C9474000C9474000C94740050
:100060000C9474000C9474000C9474000C941004A0
:100070000C9409040C9417040C947400A304EB076B
:1000800011241FBECFEFCDBFDFE3DEBF8091400064
:1000900080934000811105C098ED21E094BF20932A
:1000A00041008CBB18E3A0E0B8E3EFEDF9E302C038
:1000B00005900D92A634B107D9F729E3A6E4B8E379
:1000C00001C01D92A837B207E1F710E0CFE3D0E0FE
:1000D00004C02197FE010E944608CE33D107C9F71C
:1000E0000E9401050C949C080C9400009FB7F894A2
:1000F00088E08093840A80918E0A81FFFCCF8091F2
:100100008D0AE091A20AF091A30A2091BD383091A6
:10011000BE384091BF385091C0389FBF80FF07C0A4
:10012000E730F10520F42F5F3F4F4F4F5F4FBF0186
:1001300076956795CF01860F911DE62FE695E6959A
:10014000762F72957F70E71BFF0B67FD3196E80FE6
:10015000F91FA0E3B3E00E944C086E0F7F1F811DC2
:10016000911D0895CF92DF92EF92FF92CF93DF938C
:100170000E947600EB0184EFC82EDD24D394E12C9D
:10018000F12C0E9476006C1B7D0B683E7340A0F042
:10019000C114D104E104F10439F4DF91CF91FF904F
:1001A000EF90DF90CF90089581E0C81AD108E10860
:1001B000F108C851DC4FE5CFC114D104E104F104CA
:1001C00001F7EBCFE091AC38F091AD38309709F4FE
:1001D0004DC0A285B3858185928D91FF04C09C910D
:1001E000892329F408959C91892309F03FC0A785AC
:1001F000B0899C918189809589238C938289938988
:100200000197F1F764897589A285B385518538E036
:1002100020E0CB010197F1F7822F90E0959587952B
:10022000282F4C91452309F02068315091F7828D99
:1002300081FD20958091AB3890E001968F739927CE
:100240003091AA38381799F0A091AB38B0E0A65990
:10025000B74C2C938093AB38868997890197F1F737
:10026000A785B0898C919189892B8C930895828D73
:100270008160828FF1CFAF92BF92CF92DF92EF92E7
:10028000FF920F931F93CF93DF936C017B018B0140
:10029000040F151FEB015E01AE18BF08C017D10790
:1002A00059F06991D601ED91FC910190F081E02D1A
:1002B000C6010995892B79F7C501DF91CF911F916F
:1002C0000F91FF90EF90DF90CF90BF90AF90089587
:1002D000FC0157854089252F30E0842F90E0821B58
:1002E000930B541710F0CF96089501970895FC01D1
:1002F00095858685981761F0A685AE0FBF2FB11D35
:1003000051968C9196859F5F9F73968790E0089594
:100310008FEF9FEF0895FC0195858685981731F042
:100320008685E80FF11D818990E008958FEF9FEF9A
:100330000895FC0195852685892F90E0805C9F4F6C
:10034000821B91098F7399270895DC010FB607FE70
:1003500004C0809111018823B9F01896ED91FC91A9
:100360001997848185FF10C01F969C911F97509606
:100370008C91981304C085818F7D85830895E1EC6D
:10038000F8E3E8940C94250408950F931F93CF93FA
:10039000DF93EC018C8581608C879F858889981319
:1003A0000BC0E885F985848185FF06C08C8581FDB9
:1003B0000EC080E4848313C0062F1F851F5F1F7348
:1003C0008889811316C0CE010E94A501F9CF8581CD
:1003D0008F77806490E49483E885F9858583E88548
:1003E000F985628381E090E0DF91CF911F910F91B9
:1003F0000895EF85EC0FFD2FF11DEF5AFF4F00839D
:100400001F878C85E885F98581FF09C085818F77F5
:10041000806690E49483E885F9858583E3CF8581C0
:100420008062FBCFCF93DF93EC018C85882361F052
:10043000E885F985858185FD03C0848186FD04C03A
:10044000CE010E94A501F4CFDF91CF9108952091B4
:10045000AC383091AD382817390771F49091AA382B
:100460008091AB38981741F0E091AA38F0E0E65956
:10047000F74C808190E008958FEF9FEF08950895E5
:10048000EF92FF920F931F93CF93DF93DC01589667
:10049000ED90FC905997E114F10479F481E090E03B
:1004A00012968D939C93139790E080E0DF91CF910B
:1004B0001F910F91FF90EF9008951D96ED91FC9183
:1004C0001E971C968C911C97982F90950FB75A9653
:1004D0002C915A97122F127021FD6095F89420816B
:1004E000112319F1282B2083E7012197F1F728E048
:1004F000462F50E0308160FF1AC0382B3083E7016F
:100500002197F1F7BA0175956795215089F7112365
:1005100081F08081892380830FBF58968D919C91B3
:100520000197F1F781E090E0C1CF2923DCCF392397
:10053000E5CF9081892BEFCF2091AC383091AD3849
:100540002817390741F48091AB389091AA38891B5C
:100550008F7390E0089590E080E008952091AC388A
:100560003091AD3828173907A1F49091AA388091BD
:10057000AB38981771F0E091AA38F0E0E659F74CE3
:1005800080819091AA389F5F9F739093AA3890E0E2
:1005900008958FEF9FEF089590E080E00895CF9346
:1005A000DF93A6E0B8E3F0E0E0E01196CD91DC91B6
:1005B0001297CD2B91F493E0EE0FFF1F9A95E1F780
:1005C000EA5FF74C8083618372834383548325837E
:1005D00016821782DF91CF91089531961896E830F0
:1005E000F10519F7F7CF8231F0F490E0FC01EB55FB
:1005F000F64420812F3FB9F0FC01ED56F644E0812E
:1006000030E2E39FF0011124FC5F60FF0DC0218305
:100610008F579644DC018C91E80FF11D808961FFB2
:1006200005C08860808B08952283F2CF877FFACF40
:10063000CF93DF938231A8F590E0EC01CB55D644FF
:1006400028812F3F71F1AC014D565644DA01EC91EF
:10065000B0E2EB9FF0011124FC5F611125C02683FD
:1006600030812323A1F49C012F573644D9012C91CA
:100670003097E1F02830D0F47096E20FF11D3FB7CB
:10068000F8942081611115C0277F20833FBF835AD2
:100690009644FC018081882321F0803161F080380C
:1006A000E1F0DF91CF9108952583DACFF0E0E0E02B
:1006B000E6CF2860EACF8881DA019C91913059F425
:1006C000853010F0880F82959091010A80958923DA
:1006D0008093010AE6CF880FF7CF1092A006E1CFF2
:1006E0000E94B20061E08DE00E9418030E94B200F7
:1006F00060E08DE00C941803EF93FF93E7EBF8E3D1
:100700008F938FB78F939F937F9370E080819181B8
:10071000805D9C4F80839183885E934018F0808336
:1007200091837F5F9281970F928380E09381981FDE
:1007300093839481981F94839581981F95839681C4
:100740009F5F968397819F4F978390859F4F908758
:1007500091859F4F918781E080938D0A7F919F9132
:100760008F918FBF8F91FF91EF9118950F9304E0B8
:100770000C94C2030F9302E00C94C2030F9300E0A9
:100780000C94C2030F920FB60F921F921124FF9286
:100790001F932F933F934F935F936F937F938F9309
:1007A0009F93AF93BF93CF93DF93EF93FF93A0E01B
:1007B000B8E3A00FB11DCD91DC91000F0D5FA02F0C
:1007C000B0E0FC90109761F01F2D169518F041F0E5
:1007D0002296FBCFE991F9913097B9F30995F5CFBE
:1007E000A02FB0E0FC92FF91EF91DF91CF91BF91EC
:1007F000AF919F918F917F916F915F914F913F91B9
:100800002F911F91FF901F900F900FBE0F900F918F
:100810001895EF93FF93F898E1ECF8E30C941D041E
:10082000EF93FF93F898E1ECF8E30C944C04EF930A
:10083000FF93E1ECF8E30C9479042F932FB72F93F7
:100840008F939F93AF93BF936894CF93DF9320E0F0
:10085000C085D8E09089DF01A90FB21FAF5ABF4F02
:100860008C9120E42C838A839F5F9F738D812785E1
:10087000291302C08F7D8D83908BDF91CF9116F06D
:100880000C94C401BF91AF919F918F912F912FBF75
:100890002F91FF91EF9118952F932FB72F933F939F
:1008A0008F939F93CF93DF93C085D8E08981988100
:1008B0008674880F3485382B82FD0DC0C58581E094
:1008C0008C0F8F732685281791F0CE0FDF2F20E035
:1008D000D21F998B85873487DF91CF919F918F911C
:1008E0003F912F912FBF2F91FF91EF911895306479
:1008F000F2CF8F938FB78F939F93CF93DF93C08562
:10090000D8E09D8188818C8187FDFCCF9F7B90689A
:100910009D83DF91CF919F918F918FBF8F91FF9199
:10092000EF9118951F920F920FB60F9211248F938B
:1009300081E08093AE388093460A8F910F900FBE6E
:100940000F901F901895CF93DF93E1ECF8E312829C
:10095000138288EE93E0A0E0B0E084839583A683C1
:10096000B78323E739EB2083318320E038E0208709
:10097000318712861386CDE5D9E31A821B828C83D8
:100980009D83AE83BF838BEB99EB888399831A8A0F
:100990001B8A1C8A1D8A1E8A1F8A188E198EE7E7F9
:1009A000F9E360816E7F6D7F60836695617081E0A1
:1009B000682785E00E94180361E085E00E94F30249
:1009C00080E18C8784E294E08D879E878FEF888713
:1009D000898788E090E08A879B87E2E5F9E38CE0ED
:1009E000808383E081838CE291E0A0E0B0E08783A4
:1009F0009087A187B287809100148283DF91CF9185
:100A0000089588ED90E084BF90936100E0E0F6E007
:100A100083E582838DE0858380E2838381E0808328
:100A2000109202028093030A9EEF9093260A9093FD
:100A3000270A9BE09093000AE0E8FAE02DEF31E00E
:100A400026A737A7118290E89283848781E180836B
:100A5000789461E083E00E94F30260E083E00E940A
:100A6000180361E085E00E94F30285E092E0809344
:100A700075399093763981EF90E080936F39909338
:100A8000703983E092E080937139909372398AE7EC
:100A900091E08093733990937439209165392231B4
:100AA00098F530E0F901EF57F64480818F3F61F10E
:100AB0002D563644D901EC91F0E0DF01AA0FBB1F9F
:100AC000A050B84C2D913C9121153105E9F0482FEB
:100AD00050E0440F551F240F351F42EE50E0E9014E
:100AE000488359839FB7F8949F0175E0220F331F05
:100AF0007A95E1F7E0E1E80FE20FF0E0FC5F80813A
:100B0000887F816080839FBF80917539909176390D
:100B10000197F1F78091733990917439892B49F1DC
:100B2000E091AC38F091AD38D9E3ED35FD0709F12E
:100B3000309739F0A785B0899C9181898095892368
:100B40008C93809177398E7F809377391092AB3870
:100B50001092AA388DE599E38093AC389093AD3824
:100B6000E0916C39F0916D39808190916E39892BCB
:100B700080838091A1008D7F8093A10080910206E7
:100B80008F7C80658093020660E08EE00E94F30215
:100B900060E08FE00E94F3028091A0008360809368
:100BA000A0008091A10081608093A10081E48093E6
:100BB000A0061092A1068091CD3880FF12C081EC72
:100BC00098E30E941202E091C938F091CA38168267
:100BD000158280EC84838091CF388093CE38109238
:100BE000CD381FB7F894E091C938F091CA38168211
:100BF00083E0878380E09AE080879187148680E88D
:100C0000858380EC86839091CC38C091CB388091DD
:100C10000102992309F4F8C0816080930102C90F91
:100C2000DD27DD1FCC0FDD1FCC0FDD1FCE5ADE46CA
:100C300061E088810E94F30262E089810E94F302F0
:100C40001FBF8091400A81608093400A8091400AD2
:100C500082608093400A81E792E080934C0A9093EF
:100C60004D0A8091410A8093410A81E08093450AB0
:100C7000789462E0809152390E94F30210925539C3
:100C800010925639109257391092583961E08DE020
:100C90000E94F30242E150E069EC79EB8DE599E3C3
:100CA0000E943B0142E050E06CED79EB8DE599E369
:100CB0000E943B019CE0792E00E014E126E4822EA4
:100CC00028E3922E3FE7C32ED12CE12CF12C81ECAE
:100CD00098E30E9499011816190654F481EC98E3E0
:100CE0000E94770187FF92C08093AF381092B2388C
:100CF00080915239282F30E0409155395091563922
:100D00006091573970915839823108F0FDC0F9016E
:100D1000EB55F64480818F3F09F4F6C02D563644DA
:100D2000D901EC91B0E2EB9FF0011124FC5F9085BA
:100D3000892309F0E9C0452B462B472B99F42FB79F
:100D4000F8948091B9389091BA38A091BB38B0919D
:100D5000BC382FBF8093553990935639A09357399B
:100D6000B09358398091AE38882309F4B0CFE6E0CB
:100D7000F8E360E070E0CB0121813281211531057B
:100D800009F1A681B78143815481A417B50708F002
:100D90001FC12A0F3B1FE90148814F57550BB580F2
:100DA000B49E9001B59E300D1124032E000C440B0F
:100DB000550B620F731F841F951F9D012F5F3F4FBF
:100DC0002683378338968E169F06B1F6A7019601C3
:100DD0000E942708DA01C90181589F4FAF4FBF4FCA
:100DE0008F3F9105A105B10529F024F08FEF90E028
:100DF000A0E0B0E0B7FF03C080E090E0DC018093AA
:100E0000A1061092AE3863CF8E7F07CF9091AF3896
:100E1000992309F46DCFE091B23821E02E0F209391
:100E2000B238F0E0E155F74C8183223008F460CF0E
:100E30001092B238892F807F8093B3389F7090933F
:100E4000B438A090B038A092B538B090B138B09214
:100E5000B638803909F050C061E083E00E94180381
:100E60008A2D672D0E9407089C3008F041CFE92F9A
:100E7000F0E0E35CF84F0C94460849077806520707
:100E80007806590760077806670778066E077806C0
:100E900075072B2D48E655E065EF73EB80E00E9467
:100EA000CF0226CF2B2D4EEA55E067E47EEA82E0A2
:100EB000F6CF2B2D44E453E063E07BEA84E0EFCFF0
:100EC0002B2D41EF51E062E179EA85E0E8CF2B2D4F
:100ED00042E851E060E977EA87E0E1CF2B2D4BE76C
:100EE00054E065E173EA89E0DACF2B2D4BEB51E159
:100EF0006AE571E98BE0D3CF803809F0F9CE60E084
:100F000083E00E941803F4CE452B462B472B09F4AF
:100F100029CF2FB7F8948091B9389091BA38A09121
:100F2000BB38B091BC382FBF4091553950915639DC
:100F30006091573970915839841B950BA60BB70BEC
:100F40004091593950915A3960915B3970915C39AF
:100F500084179507A607B70748F4109255391092E1
:100F600056391092573910925839FCCE8091543925
:100F700090E001966091533970E00E941308982F19
:100F800080935439D801E0E0F0E10FB6228123705C
:100F9000E9F7F8948C938DE984BF83E080830FBEDA
:100FA000109255391092563910925739109258397B
:100FB000911103C00E947003D5CE913019F40E94A4
:100FC0007003F8CF923009F0CDCE0E947003F7CFB6
:100FD00011821282F7CE8BEB99EB80935D3990935F
:100FE0005E398091AC389091AD388D55994371F44C
:100FF000E0916C39F0916D39908180916E398095D6
:10100000892380831092AC381092AD380895991BD3
:1010100079E004C0991F961708F0961B881F7A95EF
:10102000C9F78095089597FB072E16F4009407D012
:1010300077FD09D00E94570807FC05D03EF4909533
:1010400081959F4F0895709561957F4F0895052E66
:1010500097FB1EF400940E943E0857FD07D00E94A3
:101060006B0807FC03D04EF40C943E085095409555
:10107000309521953F4F4F4F5F4F08959095809544
:10108000709561957F4F8F4F9F4F0895EE0FFF1F13
:101090000590F491E02D09940E948D08A59F900D74
:1010A000B49F900DA49F800D911D11240895AA1B3B
:1010B000BB1B51E107C0AA1FBB1FA617B70710F043
:1010C000A61BB70B881F991F5A95A9F78095909575
:1010D000BC01CD010895A1E21A2EAA1BBB1BFD0184
:1010E0000DC0AA1FBB1FEE1FFF1FA217B307E40707
:1010F000F50720F0A21BB30BE40BF50B661F771F5F
:10110000881F991F1A9469F760957095809590953E
:101110009B01AC01BD01CF010895A29FB001B39F17
:10112000C001A39F700D811D1124911DB29F700DF0
:10113000811D1124911D089510E0CFE3D0E004C07B
:10114000FE010E9446082196C034D107C9F7F894E1
:02115000FFCFCF
:10115200070608090E0F1000738FA7958873825B2C
:101162009B4D6D98648D8D68798E58B3867A817B9C
:1011720078919B6A888C8F7C7D66717376909C6473
:10118200936474B66B8B6798868B7977846E946F51
:10119200906D61987C81895E868A87806D807E747D
:1011A2007F7B7C8E7493858B7977927F876C857C2D
:1011B200817C6988648D838192728E74977E70843B
:1011C200747E7C76757D76897D7A83847B99848230
:1011D2008974908280757D76827C887D7D7E7A8519
:1011E2007E8472937A8D807C8975868974857D73FD
:1011F200906E867E827A86738E8D7492728F757FE0
:1012020082767C887B907A76856D8A708283827BF7
:101212009085828F778C77788A787C8E77807E75BE
:101222007F7980747D827C8D8886828582847D80B0
:101232008E7A877E777871766F717C7A828C8A8BD0
:101242007985898285827D8A877A907377706882B0
:101252007A80757B8480817F817F807F8A85848686
:101262008288827C7B7E7C7C7F807586837E867C86
:1012720086837B858A72817D76808076758373838F
:101282007D8384827E888B78937B8A8D7B8A7A7E2B
:101292007B74827B80797E827684767F7D7E807885
:1012A2008F7987857A907682857F897D80877F8313
:1012B200767F8674837B7F7F787E8081747D747D68
:1012C2008578887A8A8579907C827F7B8F7F7A86FF
:1012D2007E8C7D76827281787687877684807F8322
:1012E2006E807D8782818D856F80847A826D818711
:1012F2007B88837E877977868083787987848277F3
:1013020080807D747F857988818A887C7382867DDE
:10131200807E8684877D808174748282797B7180ED
:10132200887F7D80857B868886807D838C8A798292
:101332006E7E8875847C827C758385787D858280CB
:101342007F807E827B7C867F7B817D808475858C9D
:10135200768B7C82957981877B827B7B82757F7895
:1013620080847C7C857F738771867A7891808D7A80
:101372008481817D797D7E848189828C787D7D7F67
:101382008273848982808881787877767F7B7B7C80
:1013920082877B88777F7E808B86817D8284867D33
:1013A200797D787D837E88837A7E8D708277788955
:1013B2007D867881758A6E8887788F7F887F827331
:1013C2008C7D7C86757F8482818378817A7D828020
:1013D2007A7D7A807A7B8C7C867B89857F857B7B14
:1013E2007C8A7D8882827D717E7C7D737F817F860F
:1013F2007F82817E7A7C837E8573887F8588788BE5
:10140200807A7A8C828D748987777E8188777B75E2
:10141200827383737E847E77758A847C7A878885DB
:10142200789887818A7A9083727A7C8A7B738180AA
:101432007576806F877677888E81757F8885717ED5
:1014420081877E888A8B79797B8A8574897E877D7C
:101452007B819078787A7A816F7E7F8D747D8680A9
:1014620089727E8A7C728C837F876F8C8B7B867A73
:101472008D827E798D827281768D7C7B7A8978707D
:10148200828081767C7E7F7983837C878374948556
:101492008A7B82837F80749071857B8878847C824A
:1014A200896B8B717E7E73848882827E7C747F7767
:1014B200807F8B827A887A83789079868284887A10
:1014C200897B7E75797C7C797D817B7D81767E7658
:1014D2007B808185848976957A818C7F887E8281E2
:1014E2008B6E847B7E78738779867E86777F7F801A
:1014F2007E807C808A8280847A7E867B86788674EF
:10150200827E857C778C7B8281847C867E83877ACF
:101512007D8D72897C7A867E807A7F7A8A72877CD8
:1015220081787B807B7F7E878682768977847C81C7
:101532008782808F81848973817C867282837E8098
:101542007A7D7F7C6E847A7883778A8371888081C2
:1015520089857E8B7F7A8B7F8B7786818880738566
:10156200787B6C7E7F847383867C837E7E7F7679B4
:101572007F878E7B83778E7381798B80868D7E9831
:101582006D8B7C856B7D79868375897383787D7A93
:101592007F76797F8C7D827783857D7A8D86798F40
:1015A2007896767F817E7D787E808878817D838043
:1015B200797A7C7E7E758B827D7E7C867F777B8F3F
:1015C20074897B808777877E817C87738B807E801E
:1015D2007B8C79847E8480797B837980767D877B1E
:1015E20082858581857A847E85787D897F7F8286E2
:1015F2007B79797F7F83817C878077857C80807F00
:101602007F8981858A7881747A7C83817D857B82DA
:101612008473857B768A838186817F867B877A81C4
:10162200807F8179857C7F817979847885897B89BE
:101632007B7A8674807E7983848379877780827CC3
:101642008681837D8878828475827D7D80857F8195
:101652007D7A807B7F7F7C847F7E7D807C76807CB0
:1016620080828C80888081837C88758781847E805B
:1016720083787F7A7A7B7B7F7E7F817F7E7D857692
:10168200827C808586827E887A847F8580827F7E46
:10169200817F7D7C8179857B7E8678837A7A887763
:1016A20083857E827B7982857C887B85847A8D7A2C
:1016B200837B7C837D807E7F828478847B7E7B7546
:1016C200897F7E85837D807A7B887E867B88897808
:1016D2008579867675847B86837B8987777B7A801A
:1016E2007E74889080867F81807A777C857C7B7C03
:1016F20080827A7B888379817B86867282877F7AF1
:101702007D7E877A7B8B85867783827F7E788482D3
:101712007C7B847C837C748D817A7F7C88807283DD
:10172200807C807F85847D788A837F7B7F7F8183B5
:101732008087848276847B81737C8D7B817F837BAF
:101742007E787B847C7D83878380827E81748082A5
:101752007A8F83818683777C7D7F7F7B877E857D81
:10176200827D7B7E76877D82827E7E7A7D7B7D8294
:101772007E857F86888186808877847F8384818046
:101782007B80778674827E7B807B7C7D7974837C90
:101792007F8481898281867A8A7B868183877D871D
:1017A2007A80737A78867E82857C8777827E787C5F
:1017B2007F827F82807F807C7E76847F808D7B8823
:1017C2007E8283827B7D7F7E8B76867F7A7B7D8421
:1017D2007A7E7B837F7D7D81817B827E878480850B
:1017E20079837C77857A847A8085807C7C837E820B
:1017F2007E898485807A807A787D837E7B847A8CE8
:101802007F79807883798782877E7E84817F757FE6
:101812007F857F8089807D827C7F7E7C8383837FBE
:101822007A84837B817C82807C81847D797B837FC7
:10183200797D8280847C78917686807E88797D83AA
:101842008C77817E82837E7B798A797D86817C79A1
:101852007E7D7F7A7B8083827B7E7F82807A8A8292
:10186200877F838E778279877F7A7E7D8279877779
:101872007E7E757F82857E85807E8474827A807D7D
:101882007F887E8B718C7D847B7E87798C7A877A48
:1018920084797C83787F7D7C82827F797F767A826D
:1018A2007A88788C848B82808774837D8C7A80841A
:1018B200798079827978837E847C8582827E76843F
:1018C20079837785807D827C877786777C8A83851A
:1018D2007B857E827B81877C867B85817A7C788111
:1018E2007D7A817F877C817A7F807A8883857A88F6
:1018F2007E897C79837A83808484827A7F807A80ED
:101902007E728980817A8184797F7A8379897F8ADC
:101912008484847E847C797D7F7C837F81757E7ADA
:10192200807584827D8282847B8A78887E82847EAE
:1019320086817E76807E7D837D7F827C7D7C7E7CBF
:101942007F7885837E8A7B887A7E817E8B7984808C
:10195200837D7E827A807C827F837D7E827A7F7D98
:101962007B8077837782817D887C847A87778D7D7F
:1019720083897B8E78867C80767B7F7F867D847F61
:10198200758876808378837E8776847886797A886C
:10199200798879837882837D8A7E867A7E897B873D
:1019A20082857F827A7C85758572817D7C7C778B4E
:1019B20075827F7F877E827C817F817F8584798823
:1019C2007A8880798177877D84807F7F77817A802A
:1019D2007980817F877C897F837C7B837B887D8400
:1019E200867A837F7C7C7F7984847B8E79817F7801
:1019F2007C7B827C857C827E86817B837B7D8186EB
:101A0200837C83817A857E807B837F847D7F847AD9
:101A1200847A847582847C867C7A7E7C7F837C85D2
:101A22008383868178837A827E7B8479887B8379BB
:101A32007B7F7C8181837A898083797B86788884A5
:101A42007F847F81807D7B7B7A7F848080798385A0
:101A520078837A847C80808084798A7A857B807F8F
:101A6200808778817B827E81847D7F7E817F7F8378
:101A7200788280807A7E86748278847C848A7F836E
:101A82007E897982827E8181857C827E7B7B7B835B
:101A9200777E817C857C7F847E7E7E7C7E867E884E
:101AA2007E84807B8C7D8579837D7D817D817F8431
:101AB2007680807C7F7E807C7B827E857C7D837C41
:101AC200847B8480837E8883818676867D7E7B7F0D
:101AD20081857E7888777E817D817C837D827F7A15
:101AE200807B83847E7F877D7D877E837B7D877CF1
:101AF2007F7D7F7F807D7C84827E80837C7D807FF2
:101B0200867D7E817D857E7B808177838080897AD8
:101B12007F8382787F807C807A8184827F808280CA
:101B220083797F847C827E877E7C7E7B7F7B7E83C3
:101B3200857E837D8080807E7D7D817B81867B80AA
:101B42007B827C81818280837D7C847C8379847D9D
:101B52007B8381827C817F818283817D7B817B7E8D
:101B62007D827983887D847D83798279837E808575
:101B72007E827C857B857A81807E8882857E7B7968
:101B82007F7C7D7E807D857E83817D7E7B7F7D8661
:101B92007C8786817C80827E7A7D8A7A82837E833C
:101BA2007D7F7A7F8177877E7E7F7A8084817C8742
:101BB20078897C7E8978848084828077807F7D7F2B
:101BC2007F857F857C8082787D7F7D857D7A878217
:101BD2007E7E7A84817886837F8181817E7F7B7E0F
:101BE20083807F847D808676838078837D817B7D00
:101BF2008181817D7D7F827C8380837A7D85817EE8
:101C02007E7E81837B83807F7F807F867F7F8184CE
:101C1200807A827C82767F81838180827C82797DD8
:101C220084817A867D81827A81817C7A7D7D8881B8
:101C32007D84837C7F81847C7D817F847D7F7F81A5
:101C4200817A7F847A807D8182807F818877807C9F
:101C5200817F8080838778877D7E7C7A7E867E7E88
:101C6200847D867B7D7D817D7C8086827F81827E74
:101C7200747C83837C8481877C83857A8578818167
:101C820082807F7F7E83767C817D7E7C877D837F61
:101C92007E85788080817D827A82807C847D847D4D
:101CA200828081817D827884817C84858377847B34
:101CB2007C817D88767D8681807D7E7E7E7E85802C
:101CC20082827E817C807A7B86827B7F827E867A1C
:101CD2007E837782808580777E80867C827F807E0D
:101CE2007F827E817984837F837C80877E7D7D82F3
:101CF200817E7D857F797B7F8275818082818080F4
:101D0200827E7D817C837F7E818682817A828377D7
:101D12007B86817D8481867F7F7A7F8079828286BD
:101D2200807C817F7B7B7F7E82817A83847F7C82C1
:101D3200847E7E7E87807C7F827F7D7E7F847B81A6
:101D420080807F7B7E82827F808085837580867C97
:101D5200827C857C7C7E7F84747D807D82847E868D
:101D6200817D817B817C7B838084807F857E7B7C7F
:101D7200827E817D86847C8179847C7B8181807D69
:101D82008182817C7D817B847F7885857D7C898051
:101D92007F7A80847E807E857E847B81867A7F7A4C
:101DA200807D7C827F81807981857F7B7F85827B3C
:101DB20084857D857783827B7E80847C817B837F23
:101DC200817D7D847B837E84837A7D82827C807F19
:101DD2007F837881837C7E82827D827C867E857E03
:101DE2007C847C857C82807F7D7E7C7C7C7B848401
:101DF2007F83847E817C827E8082847E81827B82DC
:101E0200797E7D7F7C85807A85817F7A817C7C80EA
:101E120083827C83827F817E807E7D817E837C7EC5
:101E2200867F7E7E8181807E827B82837D857E7CB1
:101E3200797B81807B808289827E85807C7A7E80AC
:101E42007F7B8A828482787F7F8179807F857F7E93
:101E5200867D7D787B807F7B828883807E80817C8B
:101E6200807D81837F8581847B7D7D7D817781807B
:101E7200837D80807F7E7C827B877C8088807D7E64
:101E8200817F7C7F81808381827D827B7D7F877958
:101E92007D857E8379867A84817E83807E7B7E7C4B
:101EA2007E7881808482808286827E81837B7E812D
:101EB2007E827A807B807D7C7E81827C887F80832B
:101EC2007F7D7F7E7A817F7F81808381807F7C811D
:101ED2007C7F817F847F80837D7B837D7E80818107
:101EE2007F857C7F7E7F7F7A81817E808183817DF9
:101EF2008283797F807D847D827F7E7F7C7E807FEE
:101F02007F82848281807B80807C7B85817D7D84D1
:101F1200807C827F8182827E857D7F7F7E82817FBF
:101F2200807F7D807B8180827F7E82827A837F79BF
:101F3200857A8281828281817D807F7C81837C819E
:101F42007F847E7D827D7D807F80817E847B828294
:101F52007C807F7D7E807C8180847B83837D827F89
:101F6200817F7F7F7E7F7F7F817A827D7D7F807D83
:101F7200808480867D837C827F7E817F7F7F847E5A
:101F8200847C7F7F7C7E807F81808081807E7B805D
:101F920080827D8480847C7E807B817782817E804A
:101FA2008281867C7E857D827F7C85807C7E7D822F
:101FB20079807E83837C7F83837D817D867B807F26
:101FC20080847B7F80817D7D7F877D7F7F7F807D19
:101FD2007D828181827A857D7C7F837F7E7A818406
:101FE20080837D827C807A83827E80828280827EF0
:101FF200837C7F7D7F7D837D83807D7E79847B7EF4
:102002008085808280837F7D7E7C827A8180847FCE
:10201200847F837F7E807B847E817C837D7F7C80C6
:102022007E7C7F7D887F8181837D7E7C807F7E81B7
:1020320081827F837C827B7E7B80827F817E837DA7
:10204200817A82807E8084817D827E807B80807F97
:102052007E817D8182808282827E7E82827B807C82
:102062007F7C7D807F837A7F8181807F8084817F76
:102072008381817F7F7F807F7D7E837C7C807C816A
:102082007F7A8082828180837F7E7F7F81807F7C56
:10209200827E7C817D827C818081827D827E7D8345
:1020A2007E80837D84817C827E7C7E7E80807D8337
:1020B2008081807B807E81847E82837C817C7F7E26
:1020C2007B807D85828181837F7D7D7E7F7D808116
:1020D200837E817E7E7B7F7B7F86818382817E7F02
:1020E2007B817D7E8182828080827F7B827E817FF6
:1020F20080827F7F7E7C7E7E7D7C82847F838181E5
:10210200817D7E817F7E7B80847E7D80827F7D80DB
:102112008580817F7C827D807D82807B80808481BE
:102122007C7F847D7E7D83807C817D827D7E7F84B9
:102132008081817F857B7E8080807C7F817E817FA4
:1021420083837F7D7D82807E8181807F81807E7C92
:102152007E807D84807F83817E807C7F7E7B848085
:10216200817E83827D807E7F80807F83807E807D72
:1021720082807D827E817E7E817E807E7F807F8066
:102182008080837A7E837D817F7F817E81817E8153
:10219200817C82817F817E817E7E807C817F7E8345
:1021A2008280827F7E7E7B80817F817F807F7E8135
:1021B2007F7E807F828281807F7F7F7D7F7E7F8125
:1021C2007E828080807F7F7F807E8380817E7E8012
:1021D2007E817E8080817D7E837F80818080818000
:1021E2007F7F7F7F7E818180807F7E80817C7F7FF9
:1021F2007E7F7F81827F8080807F7F8080827F81DF
:102202007E81807D7E7D807F7D84837F807E8180D4
:102212007F7E807D827F7F837F7E7E7F807F7E84C4
:102222007E837F7E837F7E7D80817E80827E807DB5
:102232007F7F807E807F7E847F828080807D82819E
:102242007F817F80807D80807E7D7F80807E818097
:102252007F7F7E8180807E807F817E7E827E807B8A
:10226200817E807F7E847F7F7D8280817E80817E71
:10227200807F7F807D807F81837D8082817E7F7E63
:10228200807E7D8181817F817F7F7E7E7F80807E57
:102292007F8281807E7F7D80807F847F827E80813D
:1022A2007E7E7E807E7F7F807F7F7F7D7F7E7F813F
:1022B2008081807F80817E807E7F807F827F7F7E23
:1022C20080817F8180807F80807F807E7F7E7F7F14
:1022D2007E817F7F7F7E81828180807F7F807F7F02
:1022E2007F7F7F8180818081807E7F7D7F808080F3
:1022F2007F7E817E817F7E807F8081817E817D82E3
:102302007E7F7F7F818080808180807E807E7F7FD4
:10231200817F7F718F7995A15C6E896877AE4F97C7
:1023220067A6A276BD7C95A9876B5A7D827170578C
:10233200AC6F65756B6B7F6E7F9E83996B8F644EFE
:102342007E7A816E90BB757C6578637B7D70AC5ABA
:1023520080677F5D849C9F9775706D80628C619BA6
:102362007EA3A3A9A388A36B85717098A66B81A293
:10237200715D6B6E7484A188979E6893734A7C69C1
:1023820084747085A18E77A3757A71746C82757569
:10239200706A807B7D83998D947F8C7788855A8E35
:1023A2007B889984747082848E7D9F857C7A627921
:1023B20070787C8C7C82857F7F748E876B83868627
:1023C200736C7B80748FA08E986E908B82707D6E02
:1023D2005E6F8E9C797975996384769672779497FD
:1023E200976D98638A71A592697C6F8576797786F5
:1023F2006B608165758187827D7B81B06890709307
:102402008373B3818C768C6E857D8F846A7F7C75B5
:1024120068747685678496857D8C88837E7C8185C9
:102422006F7D917D816E8C845D8A8B7896627E9BB6
:102432007E9294747A7C6D8C7C78877B8386737AA7
:102442007D83756E897B7875787B7F8482A4709F8B
:10245200A574886C698279739782987187857C7F6D
:102462007B8476836C8F737F6B80786F898E98897B
:102472009578797D67778A7A8772767D8F617F7E9C
:10248200868C7B8F75866E8D67937A8E898D908709
:10249200AA637468927F7E72917F5F848B8C648C56
:1024A200797F907091786F5F75886F90878B787164
:1024B200789B7F76967C908B93926E737288847EE3
:1024C20081818078796573697F7F818C768380755D
:1024D2007B7F8698957F91807E8D74868E757F94A2
:1024E20083837371796E778F826F718A8374717C43
:1024F2007D767B788F74918D838F777F8B997C919A
:10250200907E6E87907B7E6F8A6D7D7B817C61750C
:10251200797B8586778879787C7C8090948B787DAE
:102522007D78857F858487879A827C80656E7178C5
:102532008781758E7A7679808A85869082697C8693
:102542008A71838883878B8B8C6C677D7B786F84A1
:10255200857A6980857E7C91977D9581907D658B5A
:102562007D7D7D7A848F6F6B7D7A7B76787B8379B4
:102572008C8581827C9384968E85806E6C82767047
:1025820084748F897C8288707C7176947A8480804E
:1025920079859481898A847B727478776B7C7B8E4F
:1025A2008A8792828478818688857B7E7A757C840C
:1025B200717D7B818781887B7676736E8A91938029
:1025C2008890837A788680807D89807D747F7D671C
:1025D200788A89838089806F75847A777A819C8FE3
:1025E200897E8173717A83827B93797D7C6C7D7F16
:1025F2007699877F8F7B867A797B847B85858082BB
:102602008482797A717E7982878F7F6D76797E82F4
:10261200878A8678818F787A7A7A8474968E887D92
:10262200737C757A7C877A847685897A7D7F8577D3
:10263200858C8C7C787D6E717C80868A7C7F8B7F9A
:1026420088767B8B7991897A807C78797280817F98
:10265200887C847F707C7D788B798B8F817B857C75
:10266200768F7D867B818F83747B737E7D7691816D
:10267200807E7B7B7A787E8382878689867A7C7B62
:102682007C7C80898083777C7D777E7D828487864F
:1026920082797D7B7E818087817D80857E837D813D
:1026A2007B7C84837E797D7B7D7B8783857E818134
:1026B2007B7E7F827A848081857D7C82798383811F
:1026C200847B7C807B7C84818284857F827B7F7B10
:1026D2007A7C7C7E7F847E827D837B8084808682FE
:1026E2007D827F7B807E7F7F8583827F817A7A7CF9
:1026F2007982808184837F818180817E8082807FD4
:102702007D7E797A7F837F828381827B837F7D7ED8
:102712007F82838083847D7F7E7E7E7D82807E80B9
:102722007C7D7D7B7F807F83858281807E7F7F7FB2
:1027320080837F7F82817F7F7F7B7F8083817C7E9E
:102742007E7F807D82817E81807F827D80807C838E
:10275200807F7E7E80827D7F827F817E7F817E7E82
:10276200827F7E807F827E7E817F7D807F817F7C73
:1027720081827F7E7F7E827F81817D7F7E807F7E60
:1027820080827F7F828081807E807F7F81807D9F2B
:102792004A7EA46EC77963A46E768660BB5E917C26
:1027A2005FD74A51916164B97485BF3BA575499859
:1027B200729B61786B676E7B7373A46C875C948188
:1027C20081C14EAD7F8D8165976AAD5A9EB261928D
:1027D20078846693955DB768688B7B7D629184751A
:1027E200877585728074679F648D838E8A848873EF
:1027F2008B6873678E75609085758B8C808A8C83ED
:102802009C8B6D917C846E91847585658A718970CB
:10281200858A598D7779846F9172758D77838078E7
:10282200848A65918B75937C8F866E8385907E7D7D
:1028320095807D808E64768470857E807F8C697AB7
:1028420078858474A17276917D8B857B907A7C7F6A
:102852008D7B8388738D738B7C768A6B7A8A6F8685
:102862007E769660848E7A8485867882828A728762
:10287200797575887F7B87749264938573897C846C
:1028820074857F8D70907A7593669279778F7E7C4E
:102892007F80738A77769070848578867C83817F47
:1028A200847C7B85737C8D7B8083817F837D7F822B
:1028B200817C857A7D8571887880847D76857F7735
:1028C200887C7B85817B80827E7B87778580827C0A
:1028D200847E7C8772877D7B867E80807B8C7A80FB
:1028E200857E7D82817E857D817F817E7C827D81E8
:1028F200817C81807C7D817D7D85807B867D8181DF
:102902007F807F807E827B837E82817F837E7E80CA
:102912007F5D372B2A41476DB1E2F5ECE4C4C8BABA
:102922006E422126344088C6E2E7D8C9ADABAB700F
:10293200401E1A1D363F4A90BACDC9C1AFA19E9121
:102942006D4D2E4583A6B8B8B3A5998A907C4E31B9
:10295200221F202C3943484C51575A5C5F636669E9
:102962006D767A7A96B9D0DAD9D3C9BFB6AA9883E6
:1029720070666673879AA9B0B1ADA69F989290933C
:102982009AA2A7A7A5A19D9995928E8A857F766B1B
:102992005F5349423D39363333353A40454A4E5208
:1029A200565B5E626B77828B90939391908E8E8E44
:1029B2009091929394939391908F8F9193979CA1DE
:1029C200A6AAADAEADACA9A7A4A19F9C9995928EE3
:1029D2008A86817C766F69635D57524E4B4A4B4CB7
:1029E2004F52565A5E6265686C6E71737677797B68
:1029F2007C7D7D7E7F7F808081838486888B8E91A3
:102A02009496999B9E9FA1A1A2A1A1A09E9D9B98F5
:102A12009693918E8B898683807D7A777572706F9B
:102A22006E6D6C6C6C6C6D6D6D6E6E6F70707071C6
:102A32007172727373747475767677787A7B7C7E32
:102A42008081838587888A8B8C8D8E8F8F8F8F8FE5
:102A52008F8E8E8D8C8B8A89878685848381807FF9
:102A62007F7E7D7C7C7B7B7A7A79797979787878BC
:102A7200787878787878787878787979797A7A7BCA
:102A82007C7D7D7E7F80808182838384858586862E
:102A920086878787878686868685858584848483DC
:102AA20083828281818180807F7F7F7F7F7E7E7E25
:102AB2007E7E7D7D7D7D7C7C7C7C7C7C7C7C7C7C4C
:102AC2007D7D7D7D7D7D7D7E7E7E7F7F7F80808022
:102AD20080808181818181818181818181818181E6
:102AE20081818181818180808080818080808080DD
:102AF20080807F7F7F7F7F7F7F7F7F7F7F7F7F7FE2
:102B02007F70767C82878B8F939597979796959413
:102B120093939495989A9C9EA0A2A2A19E9A958F17
:102B2200837F8185847C6F605141342B292B2F3226
:102B3200363A3E4249576A7F96ACC1D2E1EAF1F792
:102B4200F9F7F3EDE8E3DDD2C0AD9D8E81756B62DE
:102B5200584F4946454545434342403E3C3B3A3A3D
:102B62003B3C3E41454A515860687079848F9AA532
:102B7200B1BDC8D1D9DFE3E6E8E6E2DDD7D0C8C00F
:102B8200B4A6978A7F776F6A65625F5D5C5A59590E
:102B920058534D47413C383534333436393E434A35
:102BA20050565C636A727B85919CA8B3BEC7CED334
:102BB200D7D9D9D6D3CFCBC7C3C0BBB6AFA69E9603
:102BC2008D847A71686059534D4946433F3B38368C
:102BD200353434343536383C40454A50565D656CA0
:102BE200747B828A9199A0A8B0B8C0C6CACDCECE55
:102BF200CDCAC5C0BAB4ADA7A19B958E88827D7897
:102C020074716F6D6C6A686664646363636464653F
:102C12006565656462605E5D5C5C5D5E5F616263AA
:102C220063636365686B6F747A81888E93999EA3E0
:102C3200A7ABAEB1B4B5B6B7B7B7B6B5B3B0ADAB77
:102C4200A8A5A29F9B96928D88837D77716B656004
:102C52005B5754514F4E4D4D4D4F50525457595B47
:102C62005D6064686D71767A7F83888B8E929598A9
:102C72009B9DA0A3A5A7A8A8A8A7A6A4A29F9C992C
:102C820096928F8C898683817F7D7B797876757326
:102C9200727170706F6F6F6F6F6F6E6D6D6C6B6A4C
:102CA2006A6A696A6A6A6B6C6D6E6F707071727350
:102CB20075777A7D8185888B8E90929497999A9C6C
:102CC2009C9C9D9D9D9E9D9D9C9B99989695939164
:102CD2008F8D8A8785827E7B7874716F6C6A676656
:102CE20064636261606061616263646565666769AD
:102CF2006B6D707376797D808386888B8D909295CB
:102D0200979A9C9D9E9E9E9D9C9B99979593918E32
:102D12008B888683807E7C7B7A79787776757473EC
:102D2200737373737474747474737373727272736F
:102D32007374747576767777787878787879797B22
:102D42007C7E8082848587888A8B8D8E8F909091FD
:102D520091929292929191908F8E8E8D8C8B8A8984
:102D6200878583817F7D7B79787675737271706FC9
:102D72006E6E6E6E6E6F6F70707171727375767843
:102D8200797A7C7E7F81828384868788898A8B8B0D
:102D92008C8D8D8D8D8D8C8B8A8988878685848399
:102DA2008281807F7F7E7D7C7C7B7B7B7A7A7A7A54
:102DB2007B7B7B7B7B7B7B7B7B7B7A7A7A7A7B7B65
:102DC2007B7B7C7C7C7C7C7C7C7C7C7C7D7E7E7F3B
:102DD20080818283838485858686878787878787A4
:102DE2008787878686868585858584848383828195
:102DF20080807F7E7D7D7C7C7B7B7A7A7979797815
:102E020078797979797A7A7A7A7A7B7B7C7C7D7D1A
:102E12007E7F7F8081818282838484858586868687
:102E220086868585858484838382828180807F7F74
:102E32007F7F7E7E7E7E7E7E7E7D7D7D7E7E7E7EB1
:102E42007E7E7E7E7D88C64C30A589B5C9CFA31B08
:102E52003A556BCC7346B67D844562B1A1B96A9886
:102E6200581F3A7485D7B667D39A957F763B7A71A5
:102E7200647A2E6240737CA7C2AB7C869061737DBC
:102E82009D5774AF6C7F85586D797F9D957D867651
:102E92006D5C789DA7B187826B6C796074606E9C63
:102EA200989C7A8998878C7D7765658586889D8EC2
:102EB20092846D6A6B7D8277828B7D928586998BF7
:102EC2008D86736E7B74747472897A768D89808430
:102ED20085878F8B80837D6F7E777981797E8285EE
:102EE200888A88897A766C71767D7D7F8A868F7FE3
:102EF200858F9ACCAC27426EBB94839A5C621E5B30
:102F0200517F6684D6ABA2A07F4672696B827E84B3
:102F1200BD7FA293625F688B545F686C65A4ACBB93
:102F2200ADAA746687558A695C755C8A9493A57F9D
:102F32008E8361647B8C99A895776F655E777D89B6
:102F42007E98AA997A6688637A72747D6D837B8A89
:102F520074798F9991A98E7B7F7975637D64708175
:102F620080889E9D95917578716B67718984808642
:102F72007370827C7F8D8A858F867A89817875725B
:102F8200787C888380817B797B7F7A7D7B7D878556
:102F9200888684898F877F80756F76757B80888F1E
:102FA2008C8D857C73727072747F7D888591868426
:102FB200A9A8A189833B34573B55746C9E7F768CBC
:102FC2008DB8A5B2A3A09E755C58524176B8818D8A
:102FD2007A7A9BA0A1A2964C7F4954818E8A819EC7
:102FE20071647B6C8A888DAA92945C865575926D09
:102FF20083636779A6989F9779697B978181948388
:10300200746D635C6B6E7E81949F97A3868B6D5605
:10301200707D6E818A847C7C8979969B8A948C7679
:1030220071676D797673807B85928A95918F7C7DAD
:103032006E716D74786D7F868F93938F8C7F7B6FAB
:103042006E727C6E837C8684867F8B7477C78C4598
:1030520050966671808F798194A69D837072969541
:10306200A68596617D67465A475A9795A4AC7A81A0
:1030720098A77370745957756D9A748AA0428BA47D
:1030820095848A8D6DA4A87B854749857E82679445
:103092007B83A07B647186927D8A9851897895AEF4
:1030A200AC95946248683F596D7189B7BEBD7B6229
:1030B2008F9F8B786F8350504A668A7FA67E8FAC33
:1030C200A3AF956C87615F7E7F74908552596E4F76
:1030D20097A880B49FB168815E4A685F7A7BADA58C
:1030E200A6AD9D644A595D98A28DB794765A515007
:1030F200686798A384B29483616380AA939DA36056
:103102005672564F6573A4ABB5785D8D6C79997E16
:10311200A49A78713F6A7F6496777C8181B57281C7
:103122008B61878E9786987D67694D6B6FA4AAB570
:10313200B27587775A584C5D7C8F96A8A9895F69CA
:103142006A88AE949BA26F3B707A5E8E99646E849D
:10315200978791A37F5D716E5D8E8D8B918D738844
:103162007C6F657A9A959D9573565A58789CAEAD48
:103172009C8B877677846D4F636F93717C8A677FB0
:1031820061747466819B90AEB49E82727E6F606C35
:103192009C7478848A7A7082899F92A9947A6172E7
:1031A2006F71806D7A7A858883748492918866645F
:1031B200838B9C9D8E82796D766E628B7A65618738
:1031C200948C8F6C9895767C6E60849B748E7A6AF0
:1031D20086908E8B838B8768848F715A89836481F2
:1031E200836C829095B180918376815D7F60606A05
:1031F200708792947E87796E87A17D80936B7D81A3
:1032020075908F8279877E6074837C8E8D848A8BA1
:10321200937974756276777B818C929082758A81BC
:103222008F777D876A6B746D7A886C7F8D8DA18CA8
:103232007A8B8B907D7477677A8C6F7C827A787CBC
:10324200818997858385755F8083758A867F9A9445
:10325200858D72697F767A7D787C67808983898C97
:10326200919782808B6867786A6A6A799E9086965F
:103272008F7C7D7981798280767C6F827684887E6C
:103282008E87848A8F8B817D78786F7177777D8541
:103292007C7C8894968B8F7276747B7472887E7D28
:1032A200736C877E748579818590828186867F8121
:1032B2008C848B8F867E7779796D6E7B767273794B
:1032C20088889A828C8B83786D807A78818C7E86CE
:1032D2008F8781847676777E7A7C817F7A7A888FEF
:1032E200908B867376737E86788288787279797A03
:1032F200827C8482818685858387767B807D8388B4
:103302007C8389808982807F7478797C7C747F7BDE
:103312007C7E828C838A8C817B7878767F847E81A6
:10332200817E858181867F7B7679848885877F7798
:103332007C79767E828286838287898881787C7690
:10334200747A787E807D83868586807C7B81797B9A
:103352007E808689897E847F797D7B7D7E7A7E7F71
:10336200838785807E7E7A7D837F8287807E7C7D57
:103372007F7D7D817E808282878687847F7C7B7849
:103382007679787B7B7E8185868185827F7D7C8054
:103392007E7E7F808181818380828380817E808125
:1033A2007F7D7C7C7D7F7E80807F807F8182828129
:1033B20082808080808080807F807F807D7D7C7C19
:1033C2007D7D7D808184858382807E7D7C7D7E7E05
:1033D2007F7F8083828282807F7E7E7D7D7F7F81F0
:1033E20082828381807F7F7F7D7E7D7D7F808082E0
:1033F20083838489768B7B7F8579937D8187926DA8
:103402007D835F859F698A9561668E8188826D68FA
:1034120041503F464750555B61646A6B70727676E5
:10342200809198A09AB1E6CDE7D9D4D1BDD0C2D1CE
:10343200B9BEA29F9D7D8E666960414A46464C5246
:103442005156545464626C71686C756E707A717303
:103452007674737987847B8B8384A0959FAAA7BB9C
:10346200B2BCB4B8C3AEADAFADA8A9A5A39D9B95A0
:10347200958F8A8887858383787B74786D735F469E
:103482005144312E33251E242F34373B3F424649C7
:103492004E51565A5D62636B6E6A827D767E908C67
:1034A20082AAACAAA8BDBBC7CCBBBFB6B8B3B5B0E5
:1034B200AFABA7A5A2A09D9C98979391918A86876E
:1034C20087807E82705661626253634E454F404BE5
:1034D2003B5D434A5B5256504C566662656F757C43
:1034E200837A837479869E9BBEA59BB086A795A797
:1034F200AC95AA91A4ACA0AB9DADACA694919BA4B3
:10350200A79EA1979A909396938F898A8E8C8A8C84
:10351200818583797D7778767E746D747272727329
:1035220064616C6F57606F5E55685B695C466145AC
:103532004B4F4F4B45503F514B5A675A675E68613C
:103542006962647A7A7F77827F76848A7C949E86A7
:1035520091948D9EA0AEBB94ADB3BABCBACAACB4C2
:10356200C2C4B2BBBAB3B6B2B0ACAAA4A39E9C9872
:1035720094909285808E77777D7F72716D626A6199
:103582006E50645D52533C614D4E6148535F4D5DD8
:10359200675C6456626E6A6E6A67796A6B857B7A6B
:1035A20077757B968D9996929186949E959EAF9C07
:1035B2009A99A39AAB9EA1ADA49BA5A08F8E9A9433
:1035C2008CA6958B8390978D8D817D957C78847662
:1035D200787C6A726C62756E657B6C6376525B593D
:1035E200576765536D5F62626067596758617161C1
:1035F200748C627A6E6D7C6C7575657E7A73887870
:10360200817A828676777F83798F8976A2978D9564
:103612007F8AA69F9EA09D8FA5ADA1AE98ACAE99C4
:1036220091A2A691A99F98A19EA69B9B9A858C93F5
:103632008C9683838F787A7D7A766168705D605F1D
:103642006F635D634B5A5F5D455A534063585B51EC
:10365200595A585E5B626A6970777065737B6D8DCB
:10366200827C88827A84898C919193939682A6A592
:10367200948CA79191A78EAA9CB59F95A49D939790
:10368200989FA29FA08E9683908D8A98948B7C8817
:1036920085838376947483796A7E6D726C767068A2
:1036A2006072655E7A695A78606D7372625F74687F
:1036B2006C66756A79627A7C6F846A7B7A677D7FD1
:1036C2006B917C7D88727D847A867C7A95809084E9
:1036D2007F8C97808C9B848B828C9499A0988E9CF3
:1036E2008F8C97A18F9795879E8F929090849590BB
:1036F2008F8C898E81957C88878183796C8875739C
:1037020079707968735B766A6C5F6264635F5C6E22
:1037120055676D615B71676569676B676C7A687025
:1037220073748973837B718084827B84808D849897
:1037320092869287978E91929C8C9986979E93A25D
:10374200939A889E96989387909698909991878F4E
:103752008E887D898C7A8682877B7D75728A79785C
:103762007A6D75786D6D726E6C757A6F6370737346
:103772006B7069697869746F7B757B7B79896D82FF
:103782007D71857185838286748C82847D788A803E
:10379200868682887B87808F8C80957C8B81868BC6
:1037A20084948B88918C878A8689928B81848C847D
:1037B200858B838F83877F83827A8684847F847ECE
:1037C2007C757A7D798379757C6E746C7C7672797E
:1037D2006D786577696D756B6F726D687B6D7973E6
:1037E2007379757673767F7D797C7986827D7E8327
:1037F200837F83847F8A84888D8C8B8A8B878A855A
:10380200918891928E8E8A8E8C90908F8E8B8085ED
:10381200908B878D838587868482807D83827E815B
:103822007E778473797A777B78787C80747D7278FE
:103832007575747877787A757E727C797B777C750A
:103842007E797E8376837C8077817D7F827B88818F
:103852007E8880828182867E857F85818282828245
:1038620083877D868182828582868685888285831A
:1038720087828082838384848780808082837E851E
:103882007D827E7D7E7C7C7F80807F7A7F777F7D5C
:103892007B807A777D7B787C7B7B7C7876797B7C7E
:1038A200787C76777A7A797B7B787D7B7C797E7B74
:1038B200817E81817E847B827E7F828283848282FA
:1038C200827F8485868185848785848585888186B3
:1038D20087858385868484848381858183848285A8
:1038E20081808381807F807E817E7C817B7F7D7FE2
:1038F2007F7D7E7A807D7C7D7D797D7E7D7D7C7CF9
:103902007C7D7C7E7D7C7B7E7D7D7F7F7C7F7F7DE1
:10391200807E7E7F7F80818080817F7F8080817FAB
:1039220080808081828181827F8381838181828084
:10393200818081808181818081837F828082828077
:10394200827F81807F80807F7F82807E807E7E7F7B
:103952007F7F7E7E7E7F7E807D7E7F101080000056
:103962000000101010000000000000100000000015
:1039720000C5013B0168011202990177018B010424
:103982000506070504030201000001020301020308
:103992000000000000010101010101020202020017
:1039A20000000010204080201008040201010204DF
:1039B20008020408010000000040023B01CC023F63
:1039C200029C02AE0227024D434F20302E322E308F
:0D39D200205374617274656421000D0A00B9
:1039DF005A384E38463800000000006400000000DE
:1039EF000000006400000000000000640000000000
:1039FF0000000064000000000000006400000000F0
:103A0F0000000064000000000000006400000000DF
:063A1F000000006400003D
:00000001FF
